{
	"data": {
		"bytecode": {
			"linkReferences": {},
			"object": "6080604052620000126009600a62000981565b620000259066038d7ea4c6800062000a42565b620000339060001962000a7e565b620000419060001962000a64565b600e55620000526009600a62000981565b620000659066038d7ea4c6800062000a42565b6011553480156200007557600080fd5b5060405162002f6a38038062002f6a8339810160408190526200009891620008c9565b600080546001600160a01b031916339081178255604051909182917f8be0079c531659141344cd1fd0a4f28419497f9722a3daafe3b4186f6b6457e0908290a3506001808055600e543360009081526003602090815260408083209390935530808352600b8252838320805460ff19908116871790915583546001600160a01b03908116855285852080548316881790558454168452601290925283832080548316861790558252918120805483168417905561dead90527f1120e10407cab1193d7c5139d9aae5536deb3d83e855f25f8e42f811c01f56f78054909116909117905562000186816200025d565b6200019660046008600162000488565b620001a26014620006fb565b620001e4612710620001b76009600a62000981565b620001ca9066038d7ea4c6800062000a42565b620001d6919062000921565b66038d7ea4c680006200074b565b3360007fddf252ad1be2c89b69c2b068fc378daa952ba7f163c4a11628f55a4df523b3ef620002166009600a62000981565b620002299066038d7ea4c6800062000a42565b60405190815260200160405180910390a3601354620002569030906001600160a01b0316600019620007a1565b5062000ac1565b6000546001600160a01b03163314620002ac5760405162461bcd60e51b8152602060048201819052602482015260008051602062002f4a83398151915260448201526064015b60405180910390fd5b601380546001600160a01b0383166001600160a01b0319918216811790925560148054909116821790556040805163c45a015560e01b8152905163c45a015591600480820192602092909190829003018186803b1580156200030d57600080fd5b505afa15801562000322573d6000803e3d6000fd5b505050506040513d601f19601f82011682018060405250810190620003489190620008c9565b6001600160a01b031663c9c6539630601460009054906101000a90046001600160a01b03166001600160a01b031663ad5c46486040518163ffffffff1660e01b815260040160206040518083038186803b158015620003a657600080fd5b505afa158015620003bb573d6000803e3d6000fd5b505050506040513d601f19601f82011682018060405250810190620003e19190620008c9565b6040516001600160e01b031960e085901b1681526001600160a01b03928316600482015291166024820152604401602060405180830381600087803b1580156200042a57600080fd5b505af11580156200043f573d6000803e3d6000fd5b505050506040513d601f19601f82011682018060405250810190620004659190620008c9565b601580546001600160a01b0319166001600160a01b039290921691909117905550565b6000546001600160a01b03163314620004d35760405162461bcd60e51b8152602060048201819052602482015260008051602062002f4a8339815191526044820152606401620002a3565b60018360ff1610158015620004ec575060068360ff1611155b6200054a5760405162461bcd60e51b815260206004820152602760248201527f4c697175696469747920666565206d757374206265206265747765656e20312560448201526620616e6420362560c81b6064820152608401620002a3565b60018260ff1610158015620005635750600f8260ff1611155b620005bf5760405162461bcd60e51b815260206004820152602560248201527f52657761726420666565206d757374206265206265747765656e20312520616e604482015264642031352560d81b6064820152608401620002a3565b60028160ff161115620006285760405162461bcd60e51b815260206004820152602a60248201527f446973747269627574696f6e20666565206d757374206265206265747765656e60448201526920302520616e6420322560b01b6064820152608401620002a3565b600f81620006378486620008f9565b620006439190620008f9565b60ff161115620006965760405162461bcd60e51b815260206004820152601c60248201527f546f74616c20666565732063616e6e6f742065786365656420313525000000006044820152606401620002a3565b6002805460ff8481166201000090810262ff00001988841661010090810261ffff199096168589161795909517161793849055620006dc939283048216920416620008f9565b600260036101000a81548160ff021916908360ff160217905550505050565b6000546001600160a01b03163314620007465760405162461bcd60e51b8152602060048201819052602482015260008051602062002f4a8339815191526044820152606401620002a3565b600655565b6000546001600160a01b03163314620007965760405162461bcd60e51b8152602060048201819052602482015260008051602062002f4a8339815191526044820152606401620002a3565b601091909155600f55565b6001600160a01b038316620008055760405162461bcd60e51b8152602060048201526024808201527f43616e6e6f7420617070726f76652066726f6d20746865207a65726f206164646044820152637265737360e01b6064820152608401620002a3565b6001600160a01b038216620008685760405162461bcd60e51b815260206004820152602260248201527f43616e6e6f7420617070726f766520746f20746865207a65726f206164647265604482015261737360f01b6064820152608401620002a3565b6001600160a01b0383811660008181526004602090815260408083209487168084529482529182902085905590518481527f8c5be1e5ebec7d5bd14f71427d1e84f3dd0314c0f7b2291e5b200ac8c7c3b925910160405180910390a3505050565b600060208284031215620008db578081fd5b81516001600160a01b0381168114620008f2578182fd5b9392505050565b600060ff821660ff84168060ff0382111562000919576200091962000a95565b019392505050565b60008262000933576200093362000aab565b500490565b600181815b80851115620009795781600019048211156200095d576200095d62000a95565b808516156200096b57918102915b93841c93908002906200093d565b509250929050565b6000620008f260ff8416836000826200099d5750600162000a3c565b81620009ac5750600062000a3c565b8160018114620009c55760028114620009d057620009f0565b600191505062000a3c565b60ff841115620009e457620009e462000a95565b50506001821b62000a3c565b5060208310610133831016604e8410600b841016171562000a15575081810a62000a3c565b62000a21838362000938565b806000190482111562000a385762000a3862000a95565b0290505b92915050565b600081600019048311821515161562000a5f5762000a5f62000a95565b500290565b60008282101562000a795762000a7962000a95565b500390565b60008262000a905762000a9062000aab565b500690565b634e487b7160e01b600052601160045260246000fd5b634e487b7160e01b600052601260045260246000fd5b6124798062000ad16000396000f3fe60806040526004361061023f5760003560e01c80637a46dc8b1161012e578063b88a802f116100ab578063d8372d351161006f578063d8372d3514610692578063dd62ed3e146106b2578063df90edad146106f8578063e19b92ec14610718578063f6794fdb1461072e57600080fd5b8063b88a802f146105fd578063c38568f214610612578063c8c8ebe414610627578063cbbf238e1461063c578063d3f730fd1461065c57600080fd5b806395d89b41116100f257806395d89b41146105465780639f731e1814610572578063a457c2d714610587578063a9059cbb146105a7578063b47fd563146105c757600080fd5b80637a46dc8b146104c05780638582c913146104d5578063878f2ca3146104ea5780638da5cb5b1461050857806390ff21241461052657600080fd5b8063374061ba116101bc57806352bffe981161018057806352bffe981461044157806364bfa5461461045657806370a0823114610476578063715018a61461049657806372a53045146104ab57600080fd5b8063374061ba146103a557806339509351146103d757806339e55722146103f75780634a3dd27b1461040c5780634dd9584a1461042157600080fd5b80632060995e116102035780632060995e1461031c57806323b872dd1461033c5780633094375d1461035c578063313ce56714610371578063351a964d1461038d57600080fd5b806306fdde031461024b578063095ea7b3146102955780630e66dc69146102c55780630f15f4c0146102e257806318160ddd146102f957600080fd5b3661024657005b600080fd5b34801561025757600080fd5b5060408051808201909152600f81526e14dd195b1b185c88111a585b5bdb99608a1b60208201525b60405161028c919061219c565b60405180910390f35b3480156102a157600080fd5b506102b56102b03660046120c9565b61074e565b604051901515815260200161028c565b3480156102d157600080fd5b50600554610100900460ff166102b5565b3480156102ee57600080fd5b506102f7610765565b005b34801561030557600080fd5b5061030e6107b3565b60405190815260200161028c565b34801561032857600080fd5b5061030e610337366004612019565b6107d7565b34801561034857600080fd5b506102b5610357366004612089565b61084b565b34801561036857600080fd5b5061030e61089d565b34801561037d57600080fd5b506040516009815260200161028c565b34801561039957600080fd5b5060055460ff166102b5565b3480156103b157600080fd5b506015546001600160a01b03165b6040516001600160a01b03909116815260200161028c565b3480156103e357600080fd5b506102b56103f23660046120c9565b610921565b34801561040357600080fd5b5061030e610958565b34801561041857600080fd5b50600a5461030e565b34801561042d57600080fd5b506102f761043c366004612019565b6109c0565b34801561044d57600080fd5b5060085461030e565b34801561046257600080fd5b506102f76104713660046120f4565b610bba565b34801561048257600080fd5b5061030e610491366004612019565b610c72565b3480156104a257600080fd5b506102f7610cab565b3480156104b757600080fd5b50600f5461030e565b3480156104cc57600080fd5b5060095461030e565b3480156104e157600080fd5b5060075461030e565b3480156104f657600080fd5b506013546001600160a01b03166103bf565b34801561051457600080fd5b506000546001600160a01b03166103bf565b34801561053257600080fd5b5061030e61054136600461210c565b610d51565b34801561055257600080fd5b5060408051808201909152600381526216131160ea1b602082015261027f565b34801561057e57600080fd5b5060105461030e565b34801561059357600080fd5b506102b56105a23660046120c9565b610dca565b3480156105b357600080fd5b506102b56105c23660046120c9565b610e01565b3480156105d357600080fd5b5061030e6105e2366004612019565b6001600160a01b03166000908152600c602052604090205490565b34801561060957600080fd5b506102f7610e0e565b34801561061e57600080fd5b5061030e6111c5565b34801561063357600080fd5b5060115461030e565b34801561064857600080fd5b506102f761065736600461210c565b61121d565b34801561066857600080fd5b5061030e610677366004612019565b6001600160a01b03166000908152600d602052604090205490565b34801561069e57600080fd5b506102f76106ad3660046120c9565b611252565b3480156106be57600080fd5b5061030e6106cd366004612051565b6001600160a01b03918216600090815260046020908152604080832093909416825291909152205490565b34801561070457600080fd5b506102f76107133660046120f4565b611354565b34801561072457600080fd5b506201518061030e565b34801561073a57600080fd5b506102f761074936600461215a565b611383565b600061075b3384846115c5565b5060015b92915050565b6000546001600160a01b031633146107985760405162461bcd60e51b815260040161078f906121ef565b60405180910390fd5b6005805461ffff19166101011790556107b16064610bba565b565b60006107c16009600a612334565b6107d29066038d7ea4c680006123df565b905090565b6000806107e2610958565b905060006107ef84610c72565b9050476000836107ff84846123df565b61080991906122d1565b9050601054831015610842576000610820600f5490565b905061082c8183612294565b8311156108405761083d8183612294565b91505b505b95945050505050565b60006108588484846116e9565b6001600160a01b03841660009081526004602090815260408083203380855292529091205461089391869161088e9086906123fe565b6115c5565b5060019392505050565b6000806108a930610c72565b9050620186a06108bb6009600a612334565b6108cc9066038d7ea4c680006123df565b6108d691906122d1565b8111156108e557600091505090565b80620186a06108f66009600a612334565b6109079066038d7ea4c680006123df565b61091191906122d1565b61091b91906123fe565b91505090565b3360008181526004602090815260408083206001600160a01b0387168452909152812054909161075b91859061088e908690612294565b601554600090610970906001600160a01b0316610c72565b61097b61dead610c72565b6109856000610c72565b6109916009600a612334565b6109a29066038d7ea4c680006123df565b6109ac91906123fe565b6109b691906123fe565b6107d291906123fe565b6000546001600160a01b031633146109ea5760405162461bcd60e51b815260040161078f906121ef565b601380546001600160a01b0383166001600160a01b0319918216811790925560148054909116821790556040805163c45a015560e01b8152905163c45a015591600480820192602092909190829003018186803b158015610a4a57600080fd5b505afa158015610a5e573d6000803e3d6000fd5b505050506040513d601f19601f82011682018060405250810190610a829190612035565b6001600160a01b031663c9c6539630601460009054906101000a90046001600160a01b03166001600160a01b031663ad5c46486040518163ffffffff1660e01b815260040160206040518083038186803b158015610adf57600080fd5b505afa158015610af3573d6000803e3d6000fd5b505050506040513d601f19601f82011682018060405250810190610b179190612035565b6040516001600160e01b031960e085901b1681526001600160a01b03928316600482015291166024820152604401602060405180830381600087803b158015610b5f57600080fd5b505af1158015610b73573d6000803e3d6000fd5b505050506040513d601f19601f82011682018060405250810190610b979190612035565b601580546001600160a01b0319166001600160a01b039290921691909117905550565b6000546001600160a01b03163314610be45760405162461bcd60e51b815260040161078f906121ef565b6064811015610c445760405162461bcd60e51b815260206004820152602660248201527f4c696d6974206d757374206265206c657373207468616e206f7220657175616c60448201526520746f20312560d01b606482015260840161078f565b80610c516009600a612334565b610c629066038d7ea4c680006123df565b610c6c91906122d1565b60115550565b600080610c7d6111c5565b6001600160a01b038416600090815260036020526040902054909150610ca49082906122d1565b9392505050565b6000546001600160a01b03163314610cd55760405162461bcd60e51b815260040161078f906121ef565b600080546040516001600160a01b03909116907f8be0079c531659141344cd1fd0a4f28419497f9722a3daafe3b4186f6b6457e0908390a3600080546001600160a01b03168152600b60209081526040808320805460ff19908116909155601290925282208054909116905580546001600160a01b0319169055565b60006201518083610d6e57610d668142612294565b91505061075f565b600084610d7c8560646123df565b610d8691906122d1565b90506006548110610dbf5760006064610d9f83856123df565b610da991906122d1565b9050828110610db55750815b925061075f915050565b506000949350505050565b3360008181526004602090815260408083206001600160a01b0387168452909152812054909161075b91859061088e9086906123fe565b600061075b3384846116e9565b323314610e4b5760405162461bcd60e51b815260206004820152600b60248201526a48756d616e73206f6e6c7960a81b604482015260640161078f565b60026001541415610e9e5760405162461bcd60e51b815260206004820152601f60248201527f5265656e7472616e637947756172643a207265656e7472616e742063616c6c00604482015260640161078f565b6002600155336000908152600c6020526040902054421015610f195760405162461bcd60e51b815260206004820152602e60248201527f436c61696d206461746520666f7220746869732061646472657373206861732060448201526d1b9bdd081c185cdcd959081e595d60921b606482015260840161078f565b6000610f2433610c72565b1015610f8c5760405162461bcd60e51b815260206004820152603160248201527f5468652061646472657373206d757374206f776e20584c44206265666f72652060448201527018db185a5b5a5b99c818481c995dd85c99607a1b606482015260840161078f565b6000610f97336107d7565b9050670de0b6b3a7640000811061107f5760006064610fb7600f846123df565b610fc191906122d1565b60405190915060009073220fff82900427d0ce6ee7fde1beb53cad34e8e79083908381818185875af1925050503d806000811461101a576040519150601f19603f3d011682016040523d82523d6000602084013e61101f565b606091505b50509050806110705760405162461bcd60e51b815260206004820152601a60248201527f43686172697479207472616e73616374696f6e206661696c6564000000000000604482015260640161078f565b61107a82846123fe565b925050505b61108c6201518042612294565b336000908152600c6020908152604080832093909355600d905290812080548392906110b9908490612294565b9250508190555080600a60008282546110d29190612294565b9091555050336000818152600c602090815260409182902054825193845290830184905282820152517fc10394a0cb12c24a9a3916f5fcce80bec09cbea556e47f00c731e16419ee003b9181900360600190a1604051600090339083908381818185875af1925050503d8060008114611167576040519150601f19603f3d011682016040523d82523d6000602084013e61116c565b606091505b50509050806111bd5760405162461bcd60e51b815260206004820152601960248201527f526577617264207472616e73616374696f6e206661696c656400000000000000604482015260640161078f565b505060018055565b60006111d36009600a612334565b6111e49066038d7ea4c680006123df565b600e5410156111f35750600190565b6111ff6009600a612334565b6112109066038d7ea4c680006123df565b600e546107d291906122d1565b6000546001600160a01b031633146112475760405162461bcd60e51b815260040161078f906121ef565b601091909155600f55565b6000546001600160a01b0316331461127c5760405162461bcd60e51b815260040161078f906121ef565b4281116112cb5760405162461bcd60e51b815260206004820152601c60248201527f43616e6e6f742062652061206461746520696e20746865207061737400000000604482015260640161078f565b6112d8426228de80612294565b81106113385760405162461bcd60e51b815260206004820152602960248201527f43616e6e6f74206265206d6f7265207468616e203331206461797320696e207460448201526868652066757475726560b81b606482015260840161078f565b6001600160a01b039091166000908152600c6020526040902055565b6000546001600160a01b0316331461137e5760405162461bcd60e51b815260040161078f906121ef565b600655565b6000546001600160a01b031633146113ad5760405162461bcd60e51b815260040161078f906121ef565b60018360ff16101580156113c5575060068360ff1611155b6114215760405162461bcd60e51b815260206004820152602760248201527f4c697175696469747920666565206d757374206265206265747765656e20312560448201526620616e6420362560c81b606482015260840161078f565b60018260ff16101580156114395750600f8260ff1611155b6114935760405162461bcd60e51b815260206004820152602560248201527f52657761726420666565206d757374206265206265747765656e20312520616e604482015264642031352560d81b606482015260840161078f565b60028160ff1611156114fa5760405162461bcd60e51b815260206004820152602a60248201527f446973747269627574696f6e20666565206d757374206265206265747765656e60448201526920302520616e6420322560b01b606482015260840161078f565b600f8161150784866122ac565b61151191906122ac565b60ff1611156115625760405162461bcd60e51b815260206004820152601c60248201527f546f74616c20666565732063616e6e6f74206578636565642031352500000000604482015260640161078f565b6002805460ff8481166201000090810262ff00001988841661010090810261ffff1990961685891617959095171617938490556115a69392830482169204166122ac565b600260036101000a81548160ff021916908360ff160217905550505050565b6001600160a01b0383166116275760405162461bcd60e51b8152602060048201526024808201527f43616e6e6f7420617070726f76652066726f6d20746865207a65726f206164646044820152637265737360e01b606482015260840161078f565b6001600160a01b0382166116885760405162461bcd60e51b815260206004820152602260248201527f43616e6e6f7420617070726f766520746f20746865207a65726f206164647265604482015261737360f01b606482015260840161078f565b6001600160a01b0383811660008181526004602090815260408083209487168084529482529182902085905590518481527f8c5be1e5ebec7d5bd14f71427d1e84f3dd0314c0f7b2291e5b200ac8c7c3b925910160405180910390a3505050565b6001600160a01b0383166117555760405162461bcd60e51b815260206004820152602d60248201527f5472616e736665722066726f6d20746865207a65726f2061646472657373206960448201526c1cc81b9bdd08185b1b1bddd959609a1b606482015260840161078f565b6001600160a01b0382166117bf5760405162461bcd60e51b815260206004820152602b60248201527f5472616e7366657220746f20746865207a65726f20616464726573732069732060448201526a1b9bdd08185b1b1bddd95960aa1b606482015260840161078f565b600081116118215760405162461bcd60e51b815260206004820152602960248201527f5472616e7366657220616d6f756e74206d7573742062652067726561746572206044820152687468616e207a65726f60b81b606482015260840161078f565b6001600160a01b03831660009081526012602052604090205460ff1615801561186357506001600160a01b03821660009081526012602052604090205460ff16155b156118ce576011548111156118ce5760405162461bcd60e51b815260206004820152602b60248201527f5472616e7366657220616d6f756e74206578636565647320746865206d61786960448201526a1b5d5b48185b1b1bddd95960aa1b606482015260840161078f565b6118d88383611a47565b6118ea6118e483610c72565b82610d51565b6001600160a01b0383166000908152600c602052604081208054909190611912908490612294565b9091555061192490506118e484610c72565b6001600160a01b0384166000908152600c60205260408120805490919061194c908490612294565b90915550600090508061195f8585611b29565b90925090506000606461197284866123df565b61197c91906122d1565b90506000606461198c84876123df565b61199691906122d1565b90506000816119a584886123fe565b6119af91906123fe565b90506119be8888888686611bba565b82600760008282546119d09190612294565b9250508190555081600860008282546119e99190612294565b92505081905550866001600160a01b0316886001600160a01b03167fddf252ad1be2c89b69c2b068fc378daa952ba7f163c4a11628f55a4df523b3ef83604051611a3591815260200190565b60405180910390a35050505050505050565b60055460ff16611a55575050565b6000611a6030610c72565b9050620186a0611a726009600a612334565b611a839066038d7ea4c680006123df565b611a8d91906122d1565b8110611b2457620186a0611aa36009600a612334565b611ab49066038d7ea4c680006123df565b611abe91906122d1565b9050601154811115611acf57506011545b60006001600160a01b03841630148015611af657506015546001600160a01b038481169116145b905080158015611b1457506015546001600160a01b03858116911614155b15611b2257611b2282611caf565b505b505050565b6000806000600560019054906101000a900460ff168015611b6357506001600160a01b0385166000908152600b602052604090205460ff16155b8015611b8857506001600160a01b0384166000908152600b602052604090205460ff16155b90508015611baa57505060025460ff8082169250630100000090910416611bb3565b60008092509250505b9250929050565b6000611bc46111c5565b90506000611bd282866123df565b90506000611be083866123df565b90506000611bee84866123df565b9050600081611bfd84866123fe565b611c0791906123fe565b6001600160a01b038b16600090815260036020526040812080549293508692909190611c349084906123fe565b90915550506001600160a01b03891660009081526003602052604081208054839290611c61908490612294565b90915550503060009081526003602052604081208054849290611c85908490612294565b9250508190555082600e6000828254611c9e91906123fe565b909155505050505050505050505050565b60025460009060ff63010000008204811691611cd29161010090910416846123df565b611cdc91906122d1565b90506000611cea82846123fe565b90506000611cf96002846122d1565b9050806000611d088285612294565b90506000611d1582611e77565b9050600082611d2486846123df565b611d2e91906122d1565b6014549091506000906001600160a01b031663f305d7198330888580611d5c6000546001600160a01b031690565b611d6842610168612294565b60405160e089901b6001600160e01b03191681526001600160a01b039687166004820152602481019590955260448501939093526064840191909152909216608482015260a481019190915260c4016060604051808303818588803b158015611dd057600080fd5b505af1158015611de4573d6000803e3d6000fd5b50505050506040513d601f19601f82011682018060405250810190611e09919061212d565b509150508060096000828254611e1f9190612294565b90915550506040805185815260208101859052908101869052606081018390527f1073c37866404dc5ccf364f61b6850f80619085a9a66bb67b4a9681c2ac614589060800160405180910390a1505050505050505050565b6040805160028082526060820183526000924792849290916020830190803683370190505090503081600081518110611ec057634e487b7160e01b600052603260045260246000fd5b6001600160a01b03928316602091820292909201810191909152601454604080516315ab88c960e31b81529051919093169263ad5c4648926004808301939192829003018186803b158015611f1457600080fd5b505afa158015611f28573d6000803e3d6000fd5b505050506040513d601f19601f82011682018060405250810190611f4c9190612035565b81600181518110611f6d57634e487b7160e01b600052603260045260246000fd5b6001600160a01b0392831660209182029290920101526014541663791ac9478560008430611f9d42610168612294565b6040518663ffffffff1660e01b8152600401611fbd959493929190612224565b600060405180830381600087803b158015611fd757600080fd5b505af1158015611feb573d6000803e3d6000fd5b505050508147611ffb91906123fe565b949350505050565b803560ff8116811461201457600080fd5b919050565b60006020828403121561202a578081fd5b8135610ca48161242b565b600060208284031215612046578081fd5b8151610ca48161242b565b60008060408385031215612063578081fd5b823561206e8161242b565b9150602083013561207e8161242b565b809150509250929050565b60008060006060848603121561209d578081fd5b83356120a88161242b565b925060208401356120b88161242b565b929592945050506040919091013590565b600080604083850312156120db578182fd5b82356120e68161242b565b946020939093013593505050565b600060208284031215612105578081fd5b5035919050565b6000806040838503121561211e578182fd5b50508035926020909101359150565b600080600060608486031215612141578283fd5b8351925060208401519150604084015190509250925092565b60008060006060848603121561216e578283fd5b61217784612003565b925061218560208501612003565b915061219360408501612003565b90509250925092565b6000602080835283518082850152825b818110156121c8578581018301518582016040015282016121ac565b818111156121d95783604083870101525b50601f01601f1916929092016040019392505050565b6020808252818101527f4f776e61626c653a2063616c6c6572206973206e6f7420746865206f776e6572604082015260600190565b600060a082018783526020878185015260a0604085015281875180845260c0860191508289019350845b818110156122735784516001600160a01b03168352938301939183019160010161224e565b50506001600160a01b03969096166060850152505050608001529392505050565b600082198211156122a7576122a7612415565b500190565b600060ff821660ff84168060ff038211156122c9576122c9612415565b019392505050565b6000826122ec57634e487b7160e01b81526012600452602481fd5b500490565b600181815b8085111561232c57816000190482111561231257612312612415565b8085161561231f57918102915b93841c93908002906122f6565b509250929050565b6000610ca460ff84168360008261234d5750600161075f565b8161235a5750600061075f565b8160018114612370576002811461237a57612396565b600191505061075f565b60ff84111561238b5761238b612415565b50506001821b61075f565b5060208310610133831016604e8410600b84101617156123b9575081810a61075f565b6123c383836122f1565b80600019048211156123d7576123d7612415565b029392505050565b60008160001904831182151516156123f9576123f9612415565b500290565b60008282101561241057612410612415565b500390565b634e487b7160e01b600052601160045260246000fd5b6001600160a01b038116811461244057600080fd5b5056fea2646970667358221220324b4f3c57dabab275c37e87e2e9de97d78811f5fb5350de43cfdcdadbecfd9464736f6c634300080400334f776e61626c653a2063616c6c6572206973206e6f7420746865206f776e6572",
			"opcodes": "PUSH1 0x80 PUSH1 0x40 MSTORE PUSH3 0x12 PUSH1 0x9 PUSH1 0xA PUSH3 0x981 JUMP JUMPDEST PUSH3 0x25 SWAP1 PUSH7 0x38D7EA4C68000 PUSH3 0xA42 JUMP JUMPDEST PUSH3 0x33 SWAP1 PUSH1 0x0 NOT PUSH3 0xA7E JUMP JUMPDEST PUSH3 0x41 SWAP1 PUSH1 0x0 NOT PUSH3 0xA64 JUMP JUMPDEST PUSH1 0xE SSTORE PUSH3 0x52 PUSH1 0x9 PUSH1 0xA PUSH3 0x981 JUMP JUMPDEST PUSH3 0x65 SWAP1 PUSH7 0x38D7EA4C68000 PUSH3 0xA42 JUMP JUMPDEST PUSH1 0x11 SSTORE CALLVALUE DUP1 ISZERO PUSH3 0x75 JUMPI PUSH1 0x0 DUP1 REVERT JUMPDEST POP PUSH1 0x40 MLOAD PUSH3 0x2F6A CODESIZE SUB DUP1 PUSH3 0x2F6A DUP4 CODECOPY DUP2 ADD PUSH1 0x40 DUP2 SWAP1 MSTORE PUSH3 0x98 SWAP2 PUSH3 0x8C9 JUMP JUMPDEST PUSH1 0x0 DUP1 SLOAD PUSH1 0x1 PUSH1 0x1 PUSH1 0xA0 SHL SUB NOT AND CALLER SWAP1 DUP2 OR DUP3 SSTORE PUSH1 0x40 MLOAD SWAP1 SWAP2 DUP3 SWAP2 PUSH32 0x8BE0079C531659141344CD1FD0A4F28419497F9722A3DAAFE3B4186F6B6457E0 SWAP1 DUP3 SWAP1 LOG3 POP PUSH1 0x1 DUP1 DUP1 SSTORE PUSH1 0xE SLOAD CALLER PUSH1 0x0 SWAP1 DUP2 MSTORE PUSH1 0x3 PUSH1 0x20 SWAP1 DUP2 MSTORE PUSH1 0x40 DUP1 DUP4 KECCAK256 SWAP4 SWAP1 SWAP4 SSTORE ADDRESS DUP1 DUP4 MSTORE PUSH1 0xB DUP3 MSTORE DUP4 DUP4 KECCAK256 DUP1 SLOAD PUSH1 0xFF NOT SWAP1 DUP2 AND DUP8 OR SWAP1 SWAP2 SSTORE DUP4 SLOAD PUSH1 0x1 PUSH1 0x1 PUSH1 0xA0 SHL SUB SWAP1 DUP2 AND DUP6 MSTORE DUP6 DUP6 KECCAK256 DUP1 SLOAD DUP4 AND DUP9 OR SWAP1 SSTORE DUP5 SLOAD AND DUP5 MSTORE PUSH1 0x12 SWAP1 SWAP3 MSTORE DUP4 DUP4 KECCAK256 DUP1 SLOAD DUP4 AND DUP7 OR SWAP1 SSTORE DUP3 MSTORE SWAP2 DUP2 KECCAK256 DUP1 SLOAD DUP4 AND DUP5 OR SWAP1 SSTORE PUSH2 0xDEAD SWAP1 MSTORE PUSH32 0x1120E10407CAB1193D7C5139D9AAE5536DEB3D83E855F25F8E42F811C01F56F7 DUP1 SLOAD SWAP1 SWAP2 AND SWAP1 SWAP2 OR SWAP1 SSTORE PUSH3 0x186 DUP2 PUSH3 0x25D JUMP JUMPDEST PUSH3 0x196 PUSH1 0x4 PUSH1 0x8 PUSH1 0x1 PUSH3 0x488 JUMP JUMPDEST PUSH3 0x1A2 PUSH1 0x14 PUSH3 0x6FB JUMP JUMPDEST PUSH3 0x1E4 PUSH2 0x2710 PUSH3 0x1B7 PUSH1 0x9 PUSH1 0xA PUSH3 0x981 JUMP JUMPDEST PUSH3 0x1CA SWAP1 PUSH7 0x38D7EA4C68000 PUSH3 0xA42 JUMP JUMPDEST PUSH3 0x1D6 SWAP2 SWAP1 PUSH3 0x921 JUMP JUMPDEST PUSH7 0x38D7EA4C68000 PUSH3 0x74B JUMP JUMPDEST CALLER PUSH1 0x0 PUSH32 0xDDF252AD1BE2C89B69C2B068FC378DAA952BA7F163C4A11628F55A4DF523B3EF PUSH3 0x216 PUSH1 0x9 PUSH1 0xA PUSH3 0x981 JUMP JUMPDEST PUSH3 0x229 SWAP1 PUSH7 0x38D7EA4C68000 PUSH3 0xA42 JUMP JUMPDEST PUSH1 0x40 MLOAD SWAP1 DUP2 MSTORE PUSH1 0x20 ADD PUSH1 0x40 MLOAD DUP1 SWAP2 SUB SWAP1 LOG3 PUSH1 0x13 SLOAD PUSH3 0x256 SWAP1 ADDRESS SWAP1 PUSH1 0x1 PUSH1 0x1 PUSH1 0xA0 SHL SUB AND PUSH1 0x0 NOT PUSH3 0x7A1 JUMP JUMPDEST POP PUSH3 0xAC1 JUMP JUMPDEST PUSH1 0x0 SLOAD PUSH1 0x1 PUSH1 0x1 PUSH1 0xA0 SHL SUB AND CALLER EQ PUSH3 0x2AC JUMPI PUSH1 0x40 MLOAD PUSH3 0x461BCD PUSH1 0xE5 SHL DUP2 MSTORE PUSH1 0x20 PUSH1 0x4 DUP3 ADD DUP2 SWAP1 MSTORE PUSH1 0x24 DUP3 ADD MSTORE PUSH1 0x0 DUP1 MLOAD PUSH1 0x20 PUSH3 0x2F4A DUP4 CODECOPY DUP2 MLOAD SWAP2 MSTORE PUSH1 0x44 DUP3 ADD MSTORE PUSH1 0x64 ADD JUMPDEST PUSH1 0x40 MLOAD DUP1 SWAP2 SUB SWAP1 REVERT JUMPDEST PUSH1 0x13 DUP1 SLOAD PUSH1 0x1 PUSH1 0x1 PUSH1 0xA0 SHL SUB DUP4 AND PUSH1 0x1 PUSH1 0x1 PUSH1 0xA0 SHL SUB NOT SWAP2 DUP3 AND DUP2 OR SWAP1 SWAP3 SSTORE PUSH1 0x14 DUP1 SLOAD SWAP1 SWAP2 AND DUP3 OR SWAP1 SSTORE PUSH1 0x40 DUP1 MLOAD PUSH4 0xC45A0155 PUSH1 0xE0 SHL DUP2 MSTORE SWAP1 MLOAD PUSH4 0xC45A0155 SWAP2 PUSH1 0x4 DUP1 DUP3 ADD SWAP3 PUSH1 0x20 SWAP3 SWAP1 SWAP2 SWAP1 DUP3 SWAP1 SUB ADD DUP2 DUP7 DUP1 EXTCODESIZE ISZERO DUP1 ISZERO PUSH3 0x30D JUMPI PUSH1 0x0 DUP1 REVERT JUMPDEST POP GAS STATICCALL ISZERO DUP1 ISZERO PUSH3 0x322 JUMPI RETURNDATASIZE PUSH1 0x0 DUP1 RETURNDATACOPY RETURNDATASIZE PUSH1 0x0 REVERT JUMPDEST POP POP POP POP PUSH1 0x40 MLOAD RETURNDATASIZE PUSH1 0x1F NOT PUSH1 0x1F DUP3 ADD AND DUP3 ADD DUP1 PUSH1 0x40 MSTORE POP DUP2 ADD SWAP1 PUSH3 0x348 SWAP2 SWAP1 PUSH3 0x8C9 JUMP JUMPDEST PUSH1 0x1 PUSH1 0x1 PUSH1 0xA0 SHL SUB AND PUSH4 0xC9C65396 ADDRESS PUSH1 0x14 PUSH1 0x0 SWAP1 SLOAD SWAP1 PUSH2 0x100 EXP SWAP1 DIV PUSH1 0x1 PUSH1 0x1 PUSH1 0xA0 SHL SUB AND PUSH1 0x1 PUSH1 0x1 PUSH1 0xA0 SHL SUB AND PUSH4 0xAD5C4648 PUSH1 0x40 MLOAD DUP2 PUSH4 0xFFFFFFFF AND PUSH1 0xE0 SHL DUP2 MSTORE PUSH1 0x4 ADD PUSH1 0x20 PUSH1 0x40 MLOAD DUP1 DUP4 SUB DUP2 DUP7 DUP1 EXTCODESIZE ISZERO DUP1 ISZERO PUSH3 0x3A6 JUMPI PUSH1 0x0 DUP1 REVERT JUMPDEST POP GAS STATICCALL ISZERO DUP1 ISZERO PUSH3 0x3BB JUMPI RETURNDATASIZE PUSH1 0x0 DUP1 RETURNDATACOPY RETURNDATASIZE PUSH1 0x0 REVERT JUMPDEST POP POP POP POP PUSH1 0x40 MLOAD RETURNDATASIZE PUSH1 0x1F NOT PUSH1 0x1F DUP3 ADD AND DUP3 ADD DUP1 PUSH1 0x40 MSTORE POP DUP2 ADD SWAP1 PUSH3 0x3E1 SWAP2 SWAP1 PUSH3 0x8C9 JUMP JUMPDEST PUSH1 0x40 MLOAD PUSH1 0x1 PUSH1 0x1 PUSH1 0xE0 SHL SUB NOT PUSH1 0xE0 DUP6 SWAP1 SHL AND DUP2 MSTORE PUSH1 0x1 PUSH1 0x1 PUSH1 0xA0 SHL SUB SWAP3 DUP4 AND PUSH1 0x4 DUP3 ADD MSTORE SWAP2 AND PUSH1 0x24 DUP3 ADD MSTORE PUSH1 0x44 ADD PUSH1 0x20 PUSH1 0x40 MLOAD DUP1 DUP4 SUB DUP2 PUSH1 0x0 DUP8 DUP1 EXTCODESIZE ISZERO DUP1 ISZERO PUSH3 0x42A JUMPI PUSH1 0x0 DUP1 REVERT JUMPDEST POP GAS CALL ISZERO DUP1 ISZERO PUSH3 0x43F JUMPI RETURNDATASIZE PUSH1 0x0 DUP1 RETURNDATACOPY RETURNDATASIZE PUSH1 0x0 REVERT JUMPDEST POP POP POP POP PUSH1 0x40 MLOAD RETURNDATASIZE PUSH1 0x1F NOT PUSH1 0x1F DUP3 ADD AND DUP3 ADD DUP1 PUSH1 0x40 MSTORE POP DUP2 ADD SWAP1 PUSH3 0x465 SWAP2 SWAP1 PUSH3 0x8C9 JUMP JUMPDEST PUSH1 0x15 DUP1 SLOAD PUSH1 0x1 PUSH1 0x1 PUSH1 0xA0 SHL SUB NOT AND PUSH1 0x1 PUSH1 0x1 PUSH1 0xA0 SHL SUB SWAP3 SWAP1 SWAP3 AND SWAP2 SWAP1 SWAP2 OR SWAP1 SSTORE POP JUMP JUMPDEST PUSH1 0x0 SLOAD PUSH1 0x1 PUSH1 0x1 PUSH1 0xA0 SHL SUB AND CALLER EQ PUSH3 0x4D3 JUMPI PUSH1 0x40 MLOAD PUSH3 0x461BCD PUSH1 0xE5 SHL DUP2 MSTORE PUSH1 0x20 PUSH1 0x4 DUP3 ADD DUP2 SWAP1 MSTORE PUSH1 0x24 DUP3 ADD MSTORE PUSH1 0x0 DUP1 MLOAD PUSH1 0x20 PUSH3 0x2F4A DUP4 CODECOPY DUP2 MLOAD SWAP2 MSTORE PUSH1 0x44 DUP3 ADD MSTORE PUSH1 0x64 ADD PUSH3 0x2A3 JUMP JUMPDEST PUSH1 0x1 DUP4 PUSH1 0xFF AND LT ISZERO DUP1 ISZERO PUSH3 0x4EC JUMPI POP PUSH1 0x6 DUP4 PUSH1 0xFF AND GT ISZERO JUMPDEST PUSH3 0x54A JUMPI PUSH1 0x40 MLOAD PUSH3 0x461BCD PUSH1 0xE5 SHL DUP2 MSTORE PUSH1 0x20 PUSH1 0x4 DUP3 ADD MSTORE PUSH1 0x27 PUSH1 0x24 DUP3 ADD MSTORE PUSH32 0x4C697175696469747920666565206D757374206265206265747765656E203125 PUSH1 0x44 DUP3 ADD MSTORE PUSH7 0x20616E64203625 PUSH1 0xC8 SHL PUSH1 0x64 DUP3 ADD MSTORE PUSH1 0x84 ADD PUSH3 0x2A3 JUMP JUMPDEST PUSH1 0x1 DUP3 PUSH1 0xFF AND LT ISZERO DUP1 ISZERO PUSH3 0x563 JUMPI POP PUSH1 0xF DUP3 PUSH1 0xFF AND GT ISZERO JUMPDEST PUSH3 0x5BF JUMPI PUSH1 0x40 MLOAD PUSH3 0x461BCD PUSH1 0xE5 SHL DUP2 MSTORE PUSH1 0x20 PUSH1 0x4 DUP3 ADD MSTORE PUSH1 0x25 PUSH1 0x24 DUP3 ADD MSTORE PUSH32 0x52657761726420666565206D757374206265206265747765656E20312520616E PUSH1 0x44 DUP3 ADD MSTORE PUSH5 0x6420313525 PUSH1 0xD8 SHL PUSH1 0x64 DUP3 ADD MSTORE PUSH1 0x84 ADD PUSH3 0x2A3 JUMP JUMPDEST PUSH1 0x2 DUP2 PUSH1 0xFF AND GT ISZERO PUSH3 0x628 JUMPI PUSH1 0x40 MLOAD PUSH3 0x461BCD PUSH1 0xE5 SHL DUP2 MSTORE PUSH1 0x20 PUSH1 0x4 DUP3 ADD MSTORE PUSH1 0x2A PUSH1 0x24 DUP3 ADD MSTORE PUSH32 0x446973747269627574696F6E20666565206D757374206265206265747765656E PUSH1 0x44 DUP3 ADD MSTORE PUSH10 0x20302520616E64203225 PUSH1 0xB0 SHL PUSH1 0x64 DUP3 ADD MSTORE PUSH1 0x84 ADD PUSH3 0x2A3 JUMP JUMPDEST PUSH1 0xF DUP2 PUSH3 0x637 DUP5 DUP7 PUSH3 0x8F9 JUMP JUMPDEST PUSH3 0x643 SWAP2 SWAP1 PUSH3 0x8F9 JUMP JUMPDEST PUSH1 0xFF AND GT ISZERO PUSH3 0x696 JUMPI PUSH1 0x40 MLOAD PUSH3 0x461BCD PUSH1 0xE5 SHL DUP2 MSTORE PUSH1 0x20 PUSH1 0x4 DUP3 ADD MSTORE PUSH1 0x1C PUSH1 0x24 DUP3 ADD MSTORE PUSH32 0x546F74616C20666565732063616E6E6F74206578636565642031352500000000 PUSH1 0x44 DUP3 ADD MSTORE PUSH1 0x64 ADD PUSH3 0x2A3 JUMP JUMPDEST PUSH1 0x2 DUP1 SLOAD PUSH1 0xFF DUP5 DUP2 AND PUSH3 0x10000 SWAP1 DUP2 MUL PUSH3 0xFF0000 NOT DUP9 DUP5 AND PUSH2 0x100 SWAP1 DUP2 MUL PUSH2 0xFFFF NOT SWAP1 SWAP7 AND DUP6 DUP10 AND OR SWAP6 SWAP1 SWAP6 OR AND OR SWAP4 DUP5 SWAP1 SSTORE PUSH3 0x6DC SWAP4 SWAP3 DUP4 DIV DUP3 AND SWAP3 DIV AND PUSH3 0x8F9 JUMP JUMPDEST PUSH1 0x2 PUSH1 0x3 PUSH2 0x100 EXP DUP2 SLOAD DUP2 PUSH1 0xFF MUL NOT AND SWAP1 DUP4 PUSH1 0xFF AND MUL OR SWAP1 SSTORE POP POP POP POP JUMP JUMPDEST PUSH1 0x0 SLOAD PUSH1 0x1 PUSH1 0x1 PUSH1 0xA0 SHL SUB AND CALLER EQ PUSH3 0x746 JUMPI PUSH1 0x40 MLOAD PUSH3 0x461BCD PUSH1 0xE5 SHL DUP2 MSTORE PUSH1 0x20 PUSH1 0x4 DUP3 ADD DUP2 SWAP1 MSTORE PUSH1 0x24 DUP3 ADD MSTORE PUSH1 0x0 DUP1 MLOAD PUSH1 0x20 PUSH3 0x2F4A DUP4 CODECOPY DUP2 MLOAD SWAP2 MSTORE PUSH1 0x44 DUP3 ADD MSTORE PUSH1 0x64 ADD PUSH3 0x2A3 JUMP JUMPDEST PUSH1 0x6 SSTORE JUMP JUMPDEST PUSH1 0x0 SLOAD PUSH1 0x1 PUSH1 0x1 PUSH1 0xA0 SHL SUB AND CALLER EQ PUSH3 0x796 JUMPI PUSH1 0x40 MLOAD PUSH3 0x461BCD PUSH1 0xE5 SHL DUP2 MSTORE PUSH1 0x20 PUSH1 0x4 DUP3 ADD DUP2 SWAP1 MSTORE PUSH1 0x24 DUP3 ADD MSTORE PUSH1 0x0 DUP1 MLOAD PUSH1 0x20 PUSH3 0x2F4A DUP4 CODECOPY DUP2 MLOAD SWAP2 MSTORE PUSH1 0x44 DUP3 ADD MSTORE PUSH1 0x64 ADD PUSH3 0x2A3 JUMP JUMPDEST PUSH1 0x10 SWAP2 SWAP1 SWAP2 SSTORE PUSH1 0xF SSTORE JUMP JUMPDEST PUSH1 0x1 PUSH1 0x1 PUSH1 0xA0 SHL SUB DUP4 AND PUSH3 0x805 JUMPI PUSH1 0x40 MLOAD PUSH3 0x461BCD PUSH1 0xE5 SHL DUP2 MSTORE PUSH1 0x20 PUSH1 0x4 DUP3 ADD MSTORE PUSH1 0x24 DUP1 DUP3 ADD MSTORE PUSH32 0x43616E6E6F7420617070726F76652066726F6D20746865207A65726F20616464 PUSH1 0x44 DUP3 ADD MSTORE PUSH4 0x72657373 PUSH1 0xE0 SHL PUSH1 0x64 DUP3 ADD MSTORE PUSH1 0x84 ADD PUSH3 0x2A3 JUMP JUMPDEST PUSH1 0x1 PUSH1 0x1 PUSH1 0xA0 SHL SUB DUP3 AND PUSH3 0x868 JUMPI PUSH1 0x40 MLOAD PUSH3 0x461BCD PUSH1 0xE5 SHL DUP2 MSTORE PUSH1 0x20 PUSH1 0x4 DUP3 ADD MSTORE PUSH1 0x22 PUSH1 0x24 DUP3 ADD MSTORE PUSH32 0x43616E6E6F7420617070726F766520746F20746865207A65726F206164647265 PUSH1 0x44 DUP3 ADD MSTORE PUSH2 0x7373 PUSH1 0xF0 SHL PUSH1 0x64 DUP3 ADD MSTORE PUSH1 0x84 ADD PUSH3 0x2A3 JUMP JUMPDEST PUSH1 0x1 PUSH1 0x1 PUSH1 0xA0 SHL SUB DUP4 DUP2 AND PUSH1 0x0 DUP2 DUP2 MSTORE PUSH1 0x4 PUSH1 0x20 SWAP1 DUP2 MSTORE PUSH1 0x40 DUP1 DUP4 KECCAK256 SWAP5 DUP8 AND DUP1 DUP5 MSTORE SWAP5 DUP3 MSTORE SWAP2 DUP3 SWAP1 KECCAK256 DUP6 SWAP1 SSTORE SWAP1 MLOAD DUP5 DUP2 MSTORE PUSH32 0x8C5BE1E5EBEC7D5BD14F71427D1E84F3DD0314C0F7B2291E5B200AC8C7C3B925 SWAP2 ADD PUSH1 0x40 MLOAD DUP1 SWAP2 SUB SWAP1 LOG3 POP POP POP JUMP JUMPDEST PUSH1 0x0 PUSH1 0x20 DUP3 DUP5 SUB SLT ISZERO PUSH3 0x8DB JUMPI DUP1 DUP2 REVERT JUMPDEST DUP2 MLOAD PUSH1 0x1 PUSH1 0x1 PUSH1 0xA0 SHL SUB DUP2 AND DUP2 EQ PUSH3 0x8F2 JUMPI DUP2 DUP3 REVERT JUMPDEST SWAP4 SWAP3 POP POP POP JUMP JUMPDEST PUSH1 0x0 PUSH1 0xFF DUP3 AND PUSH1 0xFF DUP5 AND DUP1 PUSH1 0xFF SUB DUP3 GT ISZERO PUSH3 0x919 JUMPI PUSH3 0x919 PUSH3 0xA95 JUMP JUMPDEST ADD SWAP4 SWAP3 POP POP POP JUMP JUMPDEST PUSH1 0x0 DUP3 PUSH3 0x933 JUMPI PUSH3 0x933 PUSH3 0xAAB JUMP JUMPDEST POP DIV SWAP1 JUMP JUMPDEST PUSH1 0x1 DUP2 DUP2 JUMPDEST DUP1 DUP6 GT ISZERO PUSH3 0x979 JUMPI DUP2 PUSH1 0x0 NOT DIV DUP3 GT ISZERO PUSH3 0x95D JUMPI PUSH3 0x95D PUSH3 0xA95 JUMP JUMPDEST DUP1 DUP6 AND ISZERO PUSH3 0x96B JUMPI SWAP2 DUP2 MUL SWAP2 JUMPDEST SWAP4 DUP5 SHR SWAP4 SWAP1 DUP1 MUL SWAP1 PUSH3 0x93D JUMP JUMPDEST POP SWAP3 POP SWAP3 SWAP1 POP JUMP JUMPDEST PUSH1 0x0 PUSH3 0x8F2 PUSH1 0xFF DUP5 AND DUP4 PUSH1 0x0 DUP3 PUSH3 0x99D JUMPI POP PUSH1 0x1 PUSH3 0xA3C JUMP JUMPDEST DUP2 PUSH3 0x9AC JUMPI POP PUSH1 0x0 PUSH3 0xA3C JUMP JUMPDEST DUP2 PUSH1 0x1 DUP2 EQ PUSH3 0x9C5 JUMPI PUSH1 0x2 DUP2 EQ PUSH3 0x9D0 JUMPI PUSH3 0x9F0 JUMP JUMPDEST PUSH1 0x1 SWAP2 POP POP PUSH3 0xA3C JUMP JUMPDEST PUSH1 0xFF DUP5 GT ISZERO PUSH3 0x9E4 JUMPI PUSH3 0x9E4 PUSH3 0xA95 JUMP JUMPDEST POP POP PUSH1 0x1 DUP3 SHL PUSH3 0xA3C JUMP JUMPDEST POP PUSH1 0x20 DUP4 LT PUSH2 0x133 DUP4 LT AND PUSH1 0x4E DUP5 LT PUSH1 0xB DUP5 LT AND OR ISZERO PUSH3 0xA15 JUMPI POP DUP2 DUP2 EXP PUSH3 0xA3C JUMP JUMPDEST PUSH3 0xA21 DUP4 DUP4 PUSH3 0x938 JUMP JUMPDEST DUP1 PUSH1 0x0 NOT DIV DUP3 GT ISZERO PUSH3 0xA38 JUMPI PUSH3 0xA38 PUSH3 0xA95 JUMP JUMPDEST MUL SWAP1 POP JUMPDEST SWAP3 SWAP2 POP POP JUMP JUMPDEST PUSH1 0x0 DUP2 PUSH1 0x0 NOT DIV DUP4 GT DUP3 ISZERO ISZERO AND ISZERO PUSH3 0xA5F JUMPI PUSH3 0xA5F PUSH3 0xA95 JUMP JUMPDEST POP MUL SWAP1 JUMP JUMPDEST PUSH1 0x0 DUP3 DUP3 LT ISZERO PUSH3 0xA79 JUMPI PUSH3 0xA79 PUSH3 0xA95 JUMP JUMPDEST POP SUB SWAP1 JUMP JUMPDEST PUSH1 0x0 DUP3 PUSH3 0xA90 JUMPI PUSH3 0xA90 PUSH3 0xAAB JUMP JUMPDEST POP MOD SWAP1 JUMP JUMPDEST PUSH4 0x4E487B71 PUSH1 0xE0 SHL PUSH1 0x0 MSTORE PUSH1 0x11 PUSH1 0x4 MSTORE PUSH1 0x24 PUSH1 0x0 REVERT JUMPDEST PUSH4 0x4E487B71 PUSH1 0xE0 SHL PUSH1 0x0 MSTORE PUSH1 0x12 PUSH1 0x4 MSTORE PUSH1 0x24 PUSH1 0x0 REVERT JUMPDEST PUSH2 0x2479 DUP1 PUSH3 0xAD1 PUSH1 0x0 CODECOPY PUSH1 0x0 RETURN INVALID PUSH1 0x80 PUSH1 0x40 MSTORE PUSH1 0x4 CALLDATASIZE LT PUSH2 0x23F JUMPI PUSH1 0x0 CALLDATALOAD PUSH1 0xE0 SHR DUP1 PUSH4 0x7A46DC8B GT PUSH2 0x12E JUMPI DUP1 PUSH4 0xB88A802F GT PUSH2 0xAB JUMPI DUP1 PUSH4 0xD8372D35 GT PUSH2 0x6F JUMPI DUP1 PUSH4 0xD8372D35 EQ PUSH2 0x692 JUMPI DUP1 PUSH4 0xDD62ED3E EQ PUSH2 0x6B2 JUMPI DUP1 PUSH4 0xDF90EDAD EQ PUSH2 0x6F8 JUMPI DUP1 PUSH4 0xE19B92EC EQ PUSH2 0x718 JUMPI DUP1 PUSH4 0xF6794FDB EQ PUSH2 0x72E JUMPI PUSH1 0x0 DUP1 REVERT JUMPDEST DUP1 PUSH4 0xB88A802F EQ PUSH2 0x5FD JUMPI DUP1 PUSH4 0xC38568F2 EQ PUSH2 0x612 JUMPI DUP1 PUSH4 0xC8C8EBE4 EQ PUSH2 0x627 JUMPI DUP1 PUSH4 0xCBBF238E EQ PUSH2 0x63C JUMPI DUP1 PUSH4 0xD3F730FD EQ PUSH2 0x65C JUMPI PUSH1 0x0 DUP1 REVERT JUMPDEST DUP1 PUSH4 0x95D89B41 GT PUSH2 0xF2 JUMPI DUP1 PUSH4 0x95D89B41 EQ PUSH2 0x546 JUMPI DUP1 PUSH4 0x9F731E18 EQ PUSH2 0x572 JUMPI DUP1 PUSH4 0xA457C2D7 EQ PUSH2 0x587 JUMPI DUP1 PUSH4 0xA9059CBB EQ PUSH2 0x5A7 JUMPI DUP1 PUSH4 0xB47FD563 EQ PUSH2 0x5C7 JUMPI PUSH1 0x0 DUP1 REVERT JUMPDEST DUP1 PUSH4 0x7A46DC8B EQ PUSH2 0x4C0 JUMPI DUP1 PUSH4 0x8582C913 EQ PUSH2 0x4D5 JUMPI DUP1 PUSH4 0x878F2CA3 EQ PUSH2 0x4EA JUMPI DUP1 PUSH4 0x8DA5CB5B EQ PUSH2 0x508 JUMPI DUP1 PUSH4 0x90FF2124 EQ PUSH2 0x526 JUMPI PUSH1 0x0 DUP1 REVERT JUMPDEST DUP1 PUSH4 0x374061BA GT PUSH2 0x1BC JUMPI DUP1 PUSH4 0x52BFFE98 GT PUSH2 0x180 JUMPI DUP1 PUSH4 0x52BFFE98 EQ PUSH2 0x441 JUMPI DUP1 PUSH4 0x64BFA546 EQ PUSH2 0x456 JUMPI DUP1 PUSH4 0x70A08231 EQ PUSH2 0x476 JUMPI DUP1 PUSH4 0x715018A6 EQ PUSH2 0x496 JUMPI DUP1 PUSH4 0x72A53045 EQ PUSH2 0x4AB JUMPI PUSH1 0x0 DUP1 REVERT JUMPDEST DUP1 PUSH4 0x374061BA EQ PUSH2 0x3A5 JUMPI DUP1 PUSH4 0x39509351 EQ PUSH2 0x3D7 JUMPI DUP1 PUSH4 0x39E55722 EQ PUSH2 0x3F7 JUMPI DUP1 PUSH4 0x4A3DD27B EQ PUSH2 0x40C JUMPI DUP1 PUSH4 0x4DD9584A EQ PUSH2 0x421 JUMPI PUSH1 0x0 DUP1 REVERT JUMPDEST DUP1 PUSH4 0x2060995E GT PUSH2 0x203 JUMPI DUP1 PUSH4 0x2060995E EQ PUSH2 0x31C JUMPI DUP1 PUSH4 0x23B872DD EQ PUSH2 0x33C JUMPI DUP1 PUSH4 0x3094375D EQ PUSH2 0x35C JUMPI DUP1 PUSH4 0x313CE567 EQ PUSH2 0x371 JUMPI DUP1 PUSH4 0x351A964D EQ PUSH2 0x38D JUMPI PUSH1 0x0 DUP1 REVERT JUMPDEST DUP1 PUSH4 0x6FDDE03 EQ PUSH2 0x24B JUMPI DUP1 PUSH4 0x95EA7B3 EQ PUSH2 0x295 JUMPI DUP1 PUSH4 0xE66DC69 EQ PUSH2 0x2C5 JUMPI DUP1 PUSH4 0xF15F4C0 EQ PUSH2 0x2E2 JUMPI DUP1 PUSH4 0x18160DDD EQ PUSH2 0x2F9 JUMPI PUSH1 0x0 DUP1 REVERT JUMPDEST CALLDATASIZE PUSH2 0x246 JUMPI STOP JUMPDEST PUSH1 0x0 DUP1 REVERT JUMPDEST CALLVALUE DUP1 ISZERO PUSH2 0x257 JUMPI PUSH1 0x0 DUP1 REVERT JUMPDEST POP PUSH1 0x40 DUP1 MLOAD DUP1 DUP3 ADD SWAP1 SWAP2 MSTORE PUSH1 0xF DUP2 MSTORE PUSH15 0x14DD195B1B185C88111A585B5BDB99 PUSH1 0x8A SHL PUSH1 0x20 DUP3 ADD MSTORE JUMPDEST PUSH1 0x40 MLOAD PUSH2 0x28C SWAP2 SWAP1 PUSH2 0x219C JUMP JUMPDEST PUSH1 0x40 MLOAD DUP1 SWAP2 SUB SWAP1 RETURN JUMPDEST CALLVALUE DUP1 ISZERO PUSH2 0x2A1 JUMPI PUSH1 0x0 DUP1 REVERT JUMPDEST POP PUSH2 0x2B5 PUSH2 0x2B0 CALLDATASIZE PUSH1 0x4 PUSH2 0x20C9 JUMP JUMPDEST PUSH2 0x74E JUMP JUMPDEST PUSH1 0x40 MLOAD SWAP1 ISZERO ISZERO DUP2 MSTORE PUSH1 0x20 ADD PUSH2 0x28C JUMP JUMPDEST CALLVALUE DUP1 ISZERO PUSH2 0x2D1 JUMPI PUSH1 0x0 DUP1 REVERT JUMPDEST POP PUSH1 0x5 SLOAD PUSH2 0x100 SWAP1 DIV PUSH1 0xFF AND PUSH2 0x2B5 JUMP JUMPDEST CALLVALUE DUP1 ISZERO PUSH2 0x2EE JUMPI PUSH1 0x0 DUP1 REVERT JUMPDEST POP PUSH2 0x2F7 PUSH2 0x765 JUMP JUMPDEST STOP JUMPDEST CALLVALUE DUP1 ISZERO PUSH2 0x305 JUMPI PUSH1 0x0 DUP1 REVERT JUMPDEST POP PUSH2 0x30E PUSH2 0x7B3 JUMP JUMPDEST PUSH1 0x40 MLOAD SWAP1 DUP2 MSTORE PUSH1 0x20 ADD PUSH2 0x28C JUMP JUMPDEST CALLVALUE DUP1 ISZERO PUSH2 0x328 JUMPI PUSH1 0x0 DUP1 REVERT JUMPDEST POP PUSH2 0x30E PUSH2 0x337 CALLDATASIZE PUSH1 0x4 PUSH2 0x2019 JUMP JUMPDEST PUSH2 0x7D7 JUMP JUMPDEST CALLVALUE DUP1 ISZERO PUSH2 0x348 JUMPI PUSH1 0x0 DUP1 REVERT JUMPDEST POP PUSH2 0x2B5 PUSH2 0x357 CALLDATASIZE PUSH1 0x4 PUSH2 0x2089 JUMP JUMPDEST PUSH2 0x84B JUMP JUMPDEST CALLVALUE DUP1 ISZERO PUSH2 0x368 JUMPI PUSH1 0x0 DUP1 REVERT JUMPDEST POP PUSH2 0x30E PUSH2 0x89D JUMP JUMPDEST CALLVALUE DUP1 ISZERO PUSH2 0x37D JUMPI PUSH1 0x0 DUP1 REVERT JUMPDEST POP PUSH1 0x40 MLOAD PUSH1 0x9 DUP2 MSTORE PUSH1 0x20 ADD PUSH2 0x28C JUMP JUMPDEST CALLVALUE DUP1 ISZERO PUSH2 0x399 JUMPI PUSH1 0x0 DUP1 REVERT JUMPDEST POP PUSH1 0x5 SLOAD PUSH1 0xFF AND PUSH2 0x2B5 JUMP JUMPDEST CALLVALUE DUP1 ISZERO PUSH2 0x3B1 JUMPI PUSH1 0x0 DUP1 REVERT JUMPDEST POP PUSH1 0x15 SLOAD PUSH1 0x1 PUSH1 0x1 PUSH1 0xA0 SHL SUB AND JUMPDEST PUSH1 0x40 MLOAD PUSH1 0x1 PUSH1 0x1 PUSH1 0xA0 SHL SUB SWAP1 SWAP2 AND DUP2 MSTORE PUSH1 0x20 ADD PUSH2 0x28C JUMP JUMPDEST CALLVALUE DUP1 ISZERO PUSH2 0x3E3 JUMPI PUSH1 0x0 DUP1 REVERT JUMPDEST POP PUSH2 0x2B5 PUSH2 0x3F2 CALLDATASIZE PUSH1 0x4 PUSH2 0x20C9 JUMP JUMPDEST PUSH2 0x921 JUMP JUMPDEST CALLVALUE DUP1 ISZERO PUSH2 0x403 JUMPI PUSH1 0x0 DUP1 REVERT JUMPDEST POP PUSH2 0x30E PUSH2 0x958 JUMP JUMPDEST CALLVALUE DUP1 ISZERO PUSH2 0x418 JUMPI PUSH1 0x0 DUP1 REVERT JUMPDEST POP PUSH1 0xA SLOAD PUSH2 0x30E JUMP JUMPDEST CALLVALUE DUP1 ISZERO PUSH2 0x42D JUMPI PUSH1 0x0 DUP1 REVERT JUMPDEST POP PUSH2 0x2F7 PUSH2 0x43C CALLDATASIZE PUSH1 0x4 PUSH2 0x2019 JUMP JUMPDEST PUSH2 0x9C0 JUMP JUMPDEST CALLVALUE DUP1 ISZERO PUSH2 0x44D JUMPI PUSH1 0x0 DUP1 REVERT JUMPDEST POP PUSH1 0x8 SLOAD PUSH2 0x30E JUMP JUMPDEST CALLVALUE DUP1 ISZERO PUSH2 0x462 JUMPI PUSH1 0x0 DUP1 REVERT JUMPDEST POP PUSH2 0x2F7 PUSH2 0x471 CALLDATASIZE PUSH1 0x4 PUSH2 0x20F4 JUMP JUMPDEST PUSH2 0xBBA JUMP JUMPDEST CALLVALUE DUP1 ISZERO PUSH2 0x482 JUMPI PUSH1 0x0 DUP1 REVERT JUMPDEST POP PUSH2 0x30E PUSH2 0x491 CALLDATASIZE PUSH1 0x4 PUSH2 0x2019 JUMP JUMPDEST PUSH2 0xC72 JUMP JUMPDEST CALLVALUE DUP1 ISZERO PUSH2 0x4A2 JUMPI PUSH1 0x0 DUP1 REVERT JUMPDEST POP PUSH2 0x2F7 PUSH2 0xCAB JUMP JUMPDEST CALLVALUE DUP1 ISZERO PUSH2 0x4B7 JUMPI PUSH1 0x0 DUP1 REVERT JUMPDEST POP PUSH1 0xF SLOAD PUSH2 0x30E JUMP JUMPDEST CALLVALUE DUP1 ISZERO PUSH2 0x4CC JUMPI PUSH1 0x0 DUP1 REVERT JUMPDEST POP PUSH1 0x9 SLOAD PUSH2 0x30E JUMP JUMPDEST CALLVALUE DUP1 ISZERO PUSH2 0x4E1 JUMPI PUSH1 0x0 DUP1 REVERT JUMPDEST POP PUSH1 0x7 SLOAD PUSH2 0x30E JUMP JUMPDEST CALLVALUE DUP1 ISZERO PUSH2 0x4F6 JUMPI PUSH1 0x0 DUP1 REVERT JUMPDEST POP PUSH1 0x13 SLOAD PUSH1 0x1 PUSH1 0x1 PUSH1 0xA0 SHL SUB AND PUSH2 0x3BF JUMP JUMPDEST CALLVALUE DUP1 ISZERO PUSH2 0x514 JUMPI PUSH1 0x0 DUP1 REVERT JUMPDEST POP PUSH1 0x0 SLOAD PUSH1 0x1 PUSH1 0x1 PUSH1 0xA0 SHL SUB AND PUSH2 0x3BF JUMP JUMPDEST CALLVALUE DUP1 ISZERO PUSH2 0x532 JUMPI PUSH1 0x0 DUP1 REVERT JUMPDEST POP PUSH2 0x30E PUSH2 0x541 CALLDATASIZE PUSH1 0x4 PUSH2 0x210C JUMP JUMPDEST PUSH2 0xD51 JUMP JUMPDEST CALLVALUE DUP1 ISZERO PUSH2 0x552 JUMPI PUSH1 0x0 DUP1 REVERT JUMPDEST POP PUSH1 0x40 DUP1 MLOAD DUP1 DUP3 ADD SWAP1 SWAP2 MSTORE PUSH1 0x3 DUP2 MSTORE PUSH3 0x161311 PUSH1 0xEA SHL PUSH1 0x20 DUP3 ADD MSTORE PUSH2 0x27F JUMP JUMPDEST CALLVALUE DUP1 ISZERO PUSH2 0x57E JUMPI PUSH1 0x0 DUP1 REVERT JUMPDEST POP PUSH1 0x10 SLOAD PUSH2 0x30E JUMP JUMPDEST CALLVALUE DUP1 ISZERO PUSH2 0x593 JUMPI PUSH1 0x0 DUP1 REVERT JUMPDEST POP PUSH2 0x2B5 PUSH2 0x5A2 CALLDATASIZE PUSH1 0x4 PUSH2 0x20C9 JUMP JUMPDEST PUSH2 0xDCA JUMP JUMPDEST CALLVALUE DUP1 ISZERO PUSH2 0x5B3 JUMPI PUSH1 0x0 DUP1 REVERT JUMPDEST POP PUSH2 0x2B5 PUSH2 0x5C2 CALLDATASIZE PUSH1 0x4 PUSH2 0x20C9 JUMP JUMPDEST PUSH2 0xE01 JUMP JUMPDEST CALLVALUE DUP1 ISZERO PUSH2 0x5D3 JUMPI PUSH1 0x0 DUP1 REVERT JUMPDEST POP PUSH2 0x30E PUSH2 0x5E2 CALLDATASIZE PUSH1 0x4 PUSH2 0x2019 JUMP JUMPDEST PUSH1 0x1 PUSH1 0x1 PUSH1 0xA0 SHL SUB AND PUSH1 0x0 SWAP1 DUP2 MSTORE PUSH1 0xC PUSH1 0x20 MSTORE PUSH1 0x40 SWAP1 KECCAK256 SLOAD SWAP1 JUMP JUMPDEST CALLVALUE DUP1 ISZERO PUSH2 0x609 JUMPI PUSH1 0x0 DUP1 REVERT JUMPDEST POP PUSH2 0x2F7 PUSH2 0xE0E JUMP JUMPDEST CALLVALUE DUP1 ISZERO PUSH2 0x61E JUMPI PUSH1 0x0 DUP1 REVERT JUMPDEST POP PUSH2 0x30E PUSH2 0x11C5 JUMP JUMPDEST CALLVALUE DUP1 ISZERO PUSH2 0x633 JUMPI PUSH1 0x0 DUP1 REVERT JUMPDEST POP PUSH1 0x11 SLOAD PUSH2 0x30E JUMP JUMPDEST CALLVALUE DUP1 ISZERO PUSH2 0x648 JUMPI PUSH1 0x0 DUP1 REVERT JUMPDEST POP PUSH2 0x2F7 PUSH2 0x657 CALLDATASIZE PUSH1 0x4 PUSH2 0x210C JUMP JUMPDEST PUSH2 0x121D JUMP JUMPDEST CALLVALUE DUP1 ISZERO PUSH2 0x668 JUMPI PUSH1 0x0 DUP1 REVERT JUMPDEST POP PUSH2 0x30E PUSH2 0x677 CALLDATASIZE PUSH1 0x4 PUSH2 0x2019 JUMP JUMPDEST PUSH1 0x1 PUSH1 0x1 PUSH1 0xA0 SHL SUB AND PUSH1 0x0 SWAP1 DUP2 MSTORE PUSH1 0xD PUSH1 0x20 MSTORE PUSH1 0x40 SWAP1 KECCAK256 SLOAD SWAP1 JUMP JUMPDEST CALLVALUE DUP1 ISZERO PUSH2 0x69E JUMPI PUSH1 0x0 DUP1 REVERT JUMPDEST POP PUSH2 0x2F7 PUSH2 0x6AD CALLDATASIZE PUSH1 0x4 PUSH2 0x20C9 JUMP JUMPDEST PUSH2 0x1252 JUMP JUMPDEST CALLVALUE DUP1 ISZERO PUSH2 0x6BE JUMPI PUSH1 0x0 DUP1 REVERT JUMPDEST POP PUSH2 0x30E PUSH2 0x6CD CALLDATASIZE PUSH1 0x4 PUSH2 0x2051 JUMP JUMPDEST PUSH1 0x1 PUSH1 0x1 PUSH1 0xA0 SHL SUB SWAP2 DUP3 AND PUSH1 0x0 SWAP1 DUP2 MSTORE PUSH1 0x4 PUSH1 0x20 SWAP1 DUP2 MSTORE PUSH1 0x40 DUP1 DUP4 KECCAK256 SWAP4 SWAP1 SWAP5 AND DUP3 MSTORE SWAP2 SWAP1 SWAP2 MSTORE KECCAK256 SLOAD SWAP1 JUMP JUMPDEST CALLVALUE DUP1 ISZERO PUSH2 0x704 JUMPI PUSH1 0x0 DUP1 REVERT JUMPDEST POP PUSH2 0x2F7 PUSH2 0x713 CALLDATASIZE PUSH1 0x4 PUSH2 0x20F4 JUMP JUMPDEST PUSH2 0x1354 JUMP JUMPDEST CALLVALUE DUP1 ISZERO PUSH2 0x724 JUMPI PUSH1 0x0 DUP1 REVERT JUMPDEST POP PUSH3 0x15180 PUSH2 0x30E JUMP JUMPDEST CALLVALUE DUP1 ISZERO PUSH2 0x73A JUMPI PUSH1 0x0 DUP1 REVERT JUMPDEST POP PUSH2 0x2F7 PUSH2 0x749 CALLDATASIZE PUSH1 0x4 PUSH2 0x215A JUMP JUMPDEST PUSH2 0x1383 JUMP JUMPDEST PUSH1 0x0 PUSH2 0x75B CALLER DUP5 DUP5 PUSH2 0x15C5 JUMP JUMPDEST POP PUSH1 0x1 JUMPDEST SWAP3 SWAP2 POP POP JUMP JUMPDEST PUSH1 0x0 SLOAD PUSH1 0x1 PUSH1 0x1 PUSH1 0xA0 SHL SUB AND CALLER EQ PUSH2 0x798 JUMPI PUSH1 0x40 MLOAD PUSH3 0x461BCD PUSH1 0xE5 SHL DUP2 MSTORE PUSH1 0x4 ADD PUSH2 0x78F SWAP1 PUSH2 0x21EF JUMP JUMPDEST PUSH1 0x40 MLOAD DUP1 SWAP2 SUB SWAP1 REVERT JUMPDEST PUSH1 0x5 DUP1 SLOAD PUSH2 0xFFFF NOT AND PUSH2 0x101 OR SWAP1 SSTORE PUSH2 0x7B1 PUSH1 0x64 PUSH2 0xBBA JUMP JUMPDEST JUMP JUMPDEST PUSH1 0x0 PUSH2 0x7C1 PUSH1 0x9 PUSH1 0xA PUSH2 0x2334 JUMP JUMPDEST PUSH2 0x7D2 SWAP1 PUSH7 0x38D7EA4C68000 PUSH2 0x23DF JUMP JUMPDEST SWAP1 POP SWAP1 JUMP JUMPDEST PUSH1 0x0 DUP1 PUSH2 0x7E2 PUSH2 0x958 JUMP JUMPDEST SWAP1 POP PUSH1 0x0 PUSH2 0x7EF DUP5 PUSH2 0xC72 JUMP JUMPDEST SWAP1 POP SELFBALANCE PUSH1 0x0 DUP4 PUSH2 0x7FF DUP5 DUP5 PUSH2 0x23DF JUMP JUMPDEST PUSH2 0x809 SWAP2 SWAP1 PUSH2 0x22D1 JUMP JUMPDEST SWAP1 POP PUSH1 0x10 SLOAD DUP4 LT ISZERO PUSH2 0x842 JUMPI PUSH1 0x0 PUSH2 0x820 PUSH1 0xF SLOAD SWAP1 JUMP JUMPDEST SWAP1 POP PUSH2 0x82C DUP2 DUP4 PUSH2 0x2294 JUMP JUMPDEST DUP4 GT ISZERO PUSH2 0x840 JUMPI PUSH2 0x83D DUP2 DUP4 PUSH2 0x2294 JUMP JUMPDEST SWAP2 POP JUMPDEST POP JUMPDEST SWAP6 SWAP5 POP POP POP POP POP JUMP JUMPDEST PUSH1 0x0 PUSH2 0x858 DUP5 DUP5 DUP5 PUSH2 0x16E9 JUMP JUMPDEST PUSH1 0x1 PUSH1 0x1 PUSH1 0xA0 SHL SUB DUP5 AND PUSH1 0x0 SWAP1 DUP2 MSTORE PUSH1 0x4 PUSH1 0x20 SWAP1 DUP2 MSTORE PUSH1 0x40 DUP1 DUP4 KECCAK256 CALLER DUP1 DUP6 MSTORE SWAP3 MSTORE SWAP1 SWAP2 KECCAK256 SLOAD PUSH2 0x893 SWAP2 DUP7 SWAP2 PUSH2 0x88E SWAP1 DUP7 SWAP1 PUSH2 0x23FE JUMP JUMPDEST PUSH2 0x15C5 JUMP JUMPDEST POP PUSH1 0x1 SWAP4 SWAP3 POP POP POP JUMP JUMPDEST PUSH1 0x0 DUP1 PUSH2 0x8A9 ADDRESS PUSH2 0xC72 JUMP JUMPDEST SWAP1 POP PUSH3 0x186A0 PUSH2 0x8BB PUSH1 0x9 PUSH1 0xA PUSH2 0x2334 JUMP JUMPDEST PUSH2 0x8CC SWAP1 PUSH7 0x38D7EA4C68000 PUSH2 0x23DF JUMP JUMPDEST PUSH2 0x8D6 SWAP2 SWAP1 PUSH2 0x22D1 JUMP JUMPDEST DUP2 GT ISZERO PUSH2 0x8E5 JUMPI PUSH1 0x0 SWAP2 POP POP SWAP1 JUMP JUMPDEST DUP1 PUSH3 0x186A0 PUSH2 0x8F6 PUSH1 0x9 PUSH1 0xA PUSH2 0x2334 JUMP JUMPDEST PUSH2 0x907 SWAP1 PUSH7 0x38D7EA4C68000 PUSH2 0x23DF JUMP JUMPDEST PUSH2 0x911 SWAP2 SWAP1 PUSH2 0x22D1 JUMP JUMPDEST PUSH2 0x91B SWAP2 SWAP1 PUSH2 0x23FE JUMP JUMPDEST SWAP2 POP POP SWAP1 JUMP JUMPDEST CALLER PUSH1 0x0 DUP2 DUP2 MSTORE PUSH1 0x4 PUSH1 0x20 SWAP1 DUP2 MSTORE PUSH1 0x40 DUP1 DUP4 KECCAK256 PUSH1 0x1 PUSH1 0x1 PUSH1 0xA0 SHL SUB DUP8 AND DUP5 MSTORE SWAP1 SWAP2 MSTORE DUP2 KECCAK256 SLOAD SWAP1 SWAP2 PUSH2 0x75B SWAP2 DUP6 SWAP1 PUSH2 0x88E SWAP1 DUP7 SWAP1 PUSH2 0x2294 JUMP JUMPDEST PUSH1 0x15 SLOAD PUSH1 0x0 SWAP1 PUSH2 0x970 SWAP1 PUSH1 0x1 PUSH1 0x1 PUSH1 0xA0 SHL SUB AND PUSH2 0xC72 JUMP JUMPDEST PUSH2 0x97B PUSH2 0xDEAD PUSH2 0xC72 JUMP JUMPDEST PUSH2 0x985 PUSH1 0x0 PUSH2 0xC72 JUMP JUMPDEST PUSH2 0x991 PUSH1 0x9 PUSH1 0xA PUSH2 0x2334 JUMP JUMPDEST PUSH2 0x9A2 SWAP1 PUSH7 0x38D7EA4C68000 PUSH2 0x23DF JUMP JUMPDEST PUSH2 0x9AC SWAP2 SWAP1 PUSH2 0x23FE JUMP JUMPDEST PUSH2 0x9B6 SWAP2 SWAP1 PUSH2 0x23FE JUMP JUMPDEST PUSH2 0x7D2 SWAP2 SWAP1 PUSH2 0x23FE JUMP JUMPDEST PUSH1 0x0 SLOAD PUSH1 0x1 PUSH1 0x1 PUSH1 0xA0 SHL SUB AND CALLER EQ PUSH2 0x9EA JUMPI PUSH1 0x40 MLOAD PUSH3 0x461BCD PUSH1 0xE5 SHL DUP2 MSTORE PUSH1 0x4 ADD PUSH2 0x78F SWAP1 PUSH2 0x21EF JUMP JUMPDEST PUSH1 0x13 DUP1 SLOAD PUSH1 0x1 PUSH1 0x1 PUSH1 0xA0 SHL SUB DUP4 AND PUSH1 0x1 PUSH1 0x1 PUSH1 0xA0 SHL SUB NOT SWAP2 DUP3 AND DUP2 OR SWAP1 SWAP3 SSTORE PUSH1 0x14 DUP1 SLOAD SWAP1 SWAP2 AND DUP3 OR SWAP1 SSTORE PUSH1 0x40 DUP1 MLOAD PUSH4 0xC45A0155 PUSH1 0xE0 SHL DUP2 MSTORE SWAP1 MLOAD PUSH4 0xC45A0155 SWAP2 PUSH1 0x4 DUP1 DUP3 ADD SWAP3 PUSH1 0x20 SWAP3 SWAP1 SWAP2 SWAP1 DUP3 SWAP1 SUB ADD DUP2 DUP7 DUP1 EXTCODESIZE ISZERO DUP1 ISZERO PUSH2 0xA4A JUMPI PUSH1 0x0 DUP1 REVERT JUMPDEST POP GAS STATICCALL ISZERO DUP1 ISZERO PUSH2 0xA5E JUMPI RETURNDATASIZE PUSH1 0x0 DUP1 RETURNDATACOPY RETURNDATASIZE PUSH1 0x0 REVERT JUMPDEST POP POP POP POP PUSH1 0x40 MLOAD RETURNDATASIZE PUSH1 0x1F NOT PUSH1 0x1F DUP3 ADD AND DUP3 ADD DUP1 PUSH1 0x40 MSTORE POP DUP2 ADD SWAP1 PUSH2 0xA82 SWAP2 SWAP1 PUSH2 0x2035 JUMP JUMPDEST PUSH1 0x1 PUSH1 0x1 PUSH1 0xA0 SHL SUB AND PUSH4 0xC9C65396 ADDRESS PUSH1 0x14 PUSH1 0x0 SWAP1 SLOAD SWAP1 PUSH2 0x100 EXP SWAP1 DIV PUSH1 0x1 PUSH1 0x1 PUSH1 0xA0 SHL SUB AND PUSH1 0x1 PUSH1 0x1 PUSH1 0xA0 SHL SUB AND PUSH4 0xAD5C4648 PUSH1 0x40 MLOAD DUP2 PUSH4 0xFFFFFFFF AND PUSH1 0xE0 SHL DUP2 MSTORE PUSH1 0x4 ADD PUSH1 0x20 PUSH1 0x40 MLOAD DUP1 DUP4 SUB DUP2 DUP7 DUP1 EXTCODESIZE ISZERO DUP1 ISZERO PUSH2 0xADF JUMPI PUSH1 0x0 DUP1 REVERT JUMPDEST POP GAS STATICCALL ISZERO DUP1 ISZERO PUSH2 0xAF3 JUMPI RETURNDATASIZE PUSH1 0x0 DUP1 RETURNDATACOPY RETURNDATASIZE PUSH1 0x0 REVERT JUMPDEST POP POP POP POP PUSH1 0x40 MLOAD RETURNDATASIZE PUSH1 0x1F NOT PUSH1 0x1F DUP3 ADD AND DUP3 ADD DUP1 PUSH1 0x40 MSTORE POP DUP2 ADD SWAP1 PUSH2 0xB17 SWAP2 SWAP1 PUSH2 0x2035 JUMP JUMPDEST PUSH1 0x40 MLOAD PUSH1 0x1 PUSH1 0x1 PUSH1 0xE0 SHL SUB NOT PUSH1 0xE0 DUP6 SWAP1 SHL AND DUP2 MSTORE PUSH1 0x1 PUSH1 0x1 PUSH1 0xA0 SHL SUB SWAP3 DUP4 AND PUSH1 0x4 DUP3 ADD MSTORE SWAP2 AND PUSH1 0x24 DUP3 ADD MSTORE PUSH1 0x44 ADD PUSH1 0x20 PUSH1 0x40 MLOAD DUP1 DUP4 SUB DUP2 PUSH1 0x0 DUP8 DUP1 EXTCODESIZE ISZERO DUP1 ISZERO PUSH2 0xB5F JUMPI PUSH1 0x0 DUP1 REVERT JUMPDEST POP GAS CALL ISZERO DUP1 ISZERO PUSH2 0xB73 JUMPI RETURNDATASIZE PUSH1 0x0 DUP1 RETURNDATACOPY RETURNDATASIZE PUSH1 0x0 REVERT JUMPDEST POP POP POP POP PUSH1 0x40 MLOAD RETURNDATASIZE PUSH1 0x1F NOT PUSH1 0x1F DUP3 ADD AND DUP3 ADD DUP1 PUSH1 0x40 MSTORE POP DUP2 ADD SWAP1 PUSH2 0xB97 SWAP2 SWAP1 PUSH2 0x2035 JUMP JUMPDEST PUSH1 0x15 DUP1 SLOAD PUSH1 0x1 PUSH1 0x1 PUSH1 0xA0 SHL SUB NOT AND PUSH1 0x1 PUSH1 0x1 PUSH1 0xA0 SHL SUB SWAP3 SWAP1 SWAP3 AND SWAP2 SWAP1 SWAP2 OR SWAP1 SSTORE POP JUMP JUMPDEST PUSH1 0x0 SLOAD PUSH1 0x1 PUSH1 0x1 PUSH1 0xA0 SHL SUB AND CALLER EQ PUSH2 0xBE4 JUMPI PUSH1 0x40 MLOAD PUSH3 0x461BCD PUSH1 0xE5 SHL DUP2 MSTORE PUSH1 0x4 ADD PUSH2 0x78F SWAP1 PUSH2 0x21EF JUMP JUMPDEST PUSH1 0x64 DUP2 LT ISZERO PUSH2 0xC44 JUMPI PUSH1 0x40 MLOAD PUSH3 0x461BCD PUSH1 0xE5 SHL DUP2 MSTORE PUSH1 0x20 PUSH1 0x4 DUP3 ADD MSTORE PUSH1 0x26 PUSH1 0x24 DUP3 ADD MSTORE PUSH32 0x4C696D6974206D757374206265206C657373207468616E206F7220657175616C PUSH1 0x44 DUP3 ADD MSTORE PUSH6 0x20746F203125 PUSH1 0xD0 SHL PUSH1 0x64 DUP3 ADD MSTORE PUSH1 0x84 ADD PUSH2 0x78F JUMP JUMPDEST DUP1 PUSH2 0xC51 PUSH1 0x9 PUSH1 0xA PUSH2 0x2334 JUMP JUMPDEST PUSH2 0xC62 SWAP1 PUSH7 0x38D7EA4C68000 PUSH2 0x23DF JUMP JUMPDEST PUSH2 0xC6C SWAP2 SWAP1 PUSH2 0x22D1 JUMP JUMPDEST PUSH1 0x11 SSTORE POP JUMP JUMPDEST PUSH1 0x0 DUP1 PUSH2 0xC7D PUSH2 0x11C5 JUMP JUMPDEST PUSH1 0x1 PUSH1 0x1 PUSH1 0xA0 SHL SUB DUP5 AND PUSH1 0x0 SWAP1 DUP2 MSTORE PUSH1 0x3 PUSH1 0x20 MSTORE PUSH1 0x40 SWAP1 KECCAK256 SLOAD SWAP1 SWAP2 POP PUSH2 0xCA4 SWAP1 DUP3 SWAP1 PUSH2 0x22D1 JUMP JUMPDEST SWAP4 SWAP3 POP POP POP JUMP JUMPDEST PUSH1 0x0 SLOAD PUSH1 0x1 PUSH1 0x1 PUSH1 0xA0 SHL SUB AND CALLER EQ PUSH2 0xCD5 JUMPI PUSH1 0x40 MLOAD PUSH3 0x461BCD PUSH1 0xE5 SHL DUP2 MSTORE PUSH1 0x4 ADD PUSH2 0x78F SWAP1 PUSH2 0x21EF JUMP JUMPDEST PUSH1 0x0 DUP1 SLOAD PUSH1 0x40 MLOAD PUSH1 0x1 PUSH1 0x1 PUSH1 0xA0 SHL SUB SWAP1 SWAP2 AND SWAP1 PUSH32 0x8BE0079C531659141344CD1FD0A4F28419497F9722A3DAAFE3B4186F6B6457E0 SWAP1 DUP4 SWAP1 LOG3 PUSH1 0x0 DUP1 SLOAD PUSH1 0x1 PUSH1 0x1 PUSH1 0xA0 SHL SUB AND DUP2 MSTORE PUSH1 0xB PUSH1 0x20 SWAP1 DUP2 MSTORE PUSH1 0x40 DUP1 DUP4 KECCAK256 DUP1 SLOAD PUSH1 0xFF NOT SWAP1 DUP2 AND SWAP1 SWAP2 SSTORE PUSH1 0x12 SWAP1 SWAP3 MSTORE DUP3 KECCAK256 DUP1 SLOAD SWAP1 SWAP2 AND SWAP1 SSTORE DUP1 SLOAD PUSH1 0x1 PUSH1 0x1 PUSH1 0xA0 SHL SUB NOT AND SWAP1 SSTORE JUMP JUMPDEST PUSH1 0x0 PUSH3 0x15180 DUP4 PUSH2 0xD6E JUMPI PUSH2 0xD66 DUP2 TIMESTAMP PUSH2 0x2294 JUMP JUMPDEST SWAP2 POP POP PUSH2 0x75F JUMP JUMPDEST PUSH1 0x0 DUP5 PUSH2 0xD7C DUP6 PUSH1 0x64 PUSH2 0x23DF JUMP JUMPDEST PUSH2 0xD86 SWAP2 SWAP1 PUSH2 0x22D1 JUMP JUMPDEST SWAP1 POP PUSH1 0x6 SLOAD DUP2 LT PUSH2 0xDBF JUMPI PUSH1 0x0 PUSH1 0x64 PUSH2 0xD9F DUP4 DUP6 PUSH2 0x23DF JUMP JUMPDEST PUSH2 0xDA9 SWAP2 SWAP1 PUSH2 0x22D1 JUMP JUMPDEST SWAP1 POP DUP3 DUP2 LT PUSH2 0xDB5 JUMPI POP DUP2 JUMPDEST SWAP3 POP PUSH2 0x75F SWAP2 POP POP JUMP JUMPDEST POP PUSH1 0x0 SWAP5 SWAP4 POP POP POP POP JUMP JUMPDEST CALLER PUSH1 0x0 DUP2 DUP2 MSTORE PUSH1 0x4 PUSH1 0x20 SWAP1 DUP2 MSTORE PUSH1 0x40 DUP1 DUP4 KECCAK256 PUSH1 0x1 PUSH1 0x1 PUSH1 0xA0 SHL SUB DUP8 AND DUP5 MSTORE SWAP1 SWAP2 MSTORE DUP2 KECCAK256 SLOAD SWAP1 SWAP2 PUSH2 0x75B SWAP2 DUP6 SWAP1 PUSH2 0x88E SWAP1 DUP7 SWAP1 PUSH2 0x23FE JUMP JUMPDEST PUSH1 0x0 PUSH2 0x75B CALLER DUP5 DUP5 PUSH2 0x16E9 JUMP JUMPDEST ORIGIN CALLER EQ PUSH2 0xE4B JUMPI PUSH1 0x40 MLOAD PUSH3 0x461BCD PUSH1 0xE5 SHL DUP2 MSTORE PUSH1 0x20 PUSH1 0x4 DUP3 ADD MSTORE PUSH1 0xB PUSH1 0x24 DUP3 ADD MSTORE PUSH11 0x48756D616E73206F6E6C79 PUSH1 0xA8 SHL PUSH1 0x44 DUP3 ADD MSTORE PUSH1 0x64 ADD PUSH2 0x78F JUMP JUMPDEST PUSH1 0x2 PUSH1 0x1 SLOAD EQ ISZERO PUSH2 0xE9E JUMPI PUSH1 0x40 MLOAD PUSH3 0x461BCD PUSH1 0xE5 SHL DUP2 MSTORE PUSH1 0x20 PUSH1 0x4 DUP3 ADD MSTORE PUSH1 0x1F PUSH1 0x24 DUP3 ADD MSTORE PUSH32 0x5265656E7472616E637947756172643A207265656E7472616E742063616C6C00 PUSH1 0x44 DUP3 ADD MSTORE PUSH1 0x64 ADD PUSH2 0x78F JUMP JUMPDEST PUSH1 0x2 PUSH1 0x1 SSTORE CALLER PUSH1 0x0 SWAP1 DUP2 MSTORE PUSH1 0xC PUSH1 0x20 MSTORE PUSH1 0x40 SWAP1 KECCAK256 SLOAD TIMESTAMP LT ISZERO PUSH2 0xF19 JUMPI PUSH1 0x40 MLOAD PUSH3 0x461BCD PUSH1 0xE5 SHL DUP2 MSTORE PUSH1 0x20 PUSH1 0x4 DUP3 ADD MSTORE PUSH1 0x2E PUSH1 0x24 DUP3 ADD MSTORE PUSH32 0x436C61696D206461746520666F72207468697320616464726573732068617320 PUSH1 0x44 DUP3 ADD MSTORE PUSH14 0x1B9BDD081C185CDCD959081E595D PUSH1 0x92 SHL PUSH1 0x64 DUP3 ADD MSTORE PUSH1 0x84 ADD PUSH2 0x78F JUMP JUMPDEST PUSH1 0x0 PUSH2 0xF24 CALLER PUSH2 0xC72 JUMP JUMPDEST LT ISZERO PUSH2 0xF8C JUMPI PUSH1 0x40 MLOAD PUSH3 0x461BCD PUSH1 0xE5 SHL DUP2 MSTORE PUSH1 0x20 PUSH1 0x4 DUP3 ADD MSTORE PUSH1 0x31 PUSH1 0x24 DUP3 ADD MSTORE PUSH32 0x5468652061646472657373206D757374206F776E20584C44206265666F726520 PUSH1 0x44 DUP3 ADD MSTORE PUSH17 0x18DB185A5B5A5B99C818481C995DD85C99 PUSH1 0x7A SHL PUSH1 0x64 DUP3 ADD MSTORE PUSH1 0x84 ADD PUSH2 0x78F JUMP JUMPDEST PUSH1 0x0 PUSH2 0xF97 CALLER PUSH2 0x7D7 JUMP JUMPDEST SWAP1 POP PUSH8 0xDE0B6B3A7640000 DUP2 LT PUSH2 0x107F JUMPI PUSH1 0x0 PUSH1 0x64 PUSH2 0xFB7 PUSH1 0xF DUP5 PUSH2 0x23DF JUMP JUMPDEST PUSH2 0xFC1 SWAP2 SWAP1 PUSH2 0x22D1 JUMP JUMPDEST PUSH1 0x40 MLOAD SWAP1 SWAP2 POP PUSH1 0x0 SWAP1 PUSH20 0x220FFF82900427D0CE6EE7FDE1BEB53CAD34E8E7 SWAP1 DUP4 SWAP1 DUP4 DUP2 DUP2 DUP2 DUP6 DUP8 GAS CALL SWAP3 POP POP POP RETURNDATASIZE DUP1 PUSH1 0x0 DUP2 EQ PUSH2 0x101A JUMPI PUSH1 0x40 MLOAD SWAP2 POP PUSH1 0x1F NOT PUSH1 0x3F RETURNDATASIZE ADD AND DUP3 ADD PUSH1 0x40 MSTORE RETURNDATASIZE DUP3 MSTORE RETURNDATASIZE PUSH1 0x0 PUSH1 0x20 DUP5 ADD RETURNDATACOPY PUSH2 0x101F JUMP JUMPDEST PUSH1 0x60 SWAP2 POP JUMPDEST POP POP SWAP1 POP DUP1 PUSH2 0x1070 JUMPI PUSH1 0x40 MLOAD PUSH3 0x461BCD PUSH1 0xE5 SHL DUP2 MSTORE PUSH1 0x20 PUSH1 0x4 DUP3 ADD MSTORE PUSH1 0x1A PUSH1 0x24 DUP3 ADD MSTORE PUSH32 0x43686172697479207472616E73616374696F6E206661696C6564000000000000 PUSH1 0x44 DUP3 ADD MSTORE PUSH1 0x64 ADD PUSH2 0x78F JUMP JUMPDEST PUSH2 0x107A DUP3 DUP5 PUSH2 0x23FE JUMP JUMPDEST SWAP3 POP POP POP JUMPDEST PUSH2 0x108C PUSH3 0x15180 TIMESTAMP PUSH2 0x2294 JUMP JUMPDEST CALLER PUSH1 0x0 SWAP1 DUP2 MSTORE PUSH1 0xC PUSH1 0x20 SWAP1 DUP2 MSTORE PUSH1 0x40 DUP1 DUP4 KECCAK256 SWAP4 SWAP1 SWAP4 SSTORE PUSH1 0xD SWAP1 MSTORE SWAP1 DUP2 KECCAK256 DUP1 SLOAD DUP4 SWAP3 SWAP1 PUSH2 0x10B9 SWAP1 DUP5 SWAP1 PUSH2 0x2294 JUMP JUMPDEST SWAP3 POP POP DUP2 SWAP1 SSTORE POP DUP1 PUSH1 0xA PUSH1 0x0 DUP3 DUP3 SLOAD PUSH2 0x10D2 SWAP2 SWAP1 PUSH2 0x2294 JUMP JUMPDEST SWAP1 SWAP2 SSTORE POP POP CALLER PUSH1 0x0 DUP2 DUP2 MSTORE PUSH1 0xC PUSH1 0x20 SWAP1 DUP2 MSTORE PUSH1 0x40 SWAP2 DUP3 SWAP1 KECCAK256 SLOAD DUP3 MLOAD SWAP4 DUP5 MSTORE SWAP1 DUP4 ADD DUP5 SWAP1 MSTORE DUP3 DUP3 ADD MSTORE MLOAD PUSH32 0xC10394A0CB12C24A9A3916F5FCCE80BEC09CBEA556E47F00C731E16419EE003B SWAP2 DUP2 SWAP1 SUB PUSH1 0x60 ADD SWAP1 LOG1 PUSH1 0x40 MLOAD PUSH1 0x0 SWAP1 CALLER SWAP1 DUP4 SWAP1 DUP4 DUP2 DUP2 DUP2 DUP6 DUP8 GAS CALL SWAP3 POP POP POP RETURNDATASIZE DUP1 PUSH1 0x0 DUP2 EQ PUSH2 0x1167 JUMPI PUSH1 0x40 MLOAD SWAP2 POP PUSH1 0x1F NOT PUSH1 0x3F RETURNDATASIZE ADD AND DUP3 ADD PUSH1 0x40 MSTORE RETURNDATASIZE DUP3 MSTORE RETURNDATASIZE PUSH1 0x0 PUSH1 0x20 DUP5 ADD RETURNDATACOPY PUSH2 0x116C JUMP JUMPDEST PUSH1 0x60 SWAP2 POP JUMPDEST POP POP SWAP1 POP DUP1 PUSH2 0x11BD JUMPI PUSH1 0x40 MLOAD PUSH3 0x461BCD PUSH1 0xE5 SHL DUP2 MSTORE PUSH1 0x20 PUSH1 0x4 DUP3 ADD MSTORE PUSH1 0x19 PUSH1 0x24 DUP3 ADD MSTORE PUSH32 0x526577617264207472616E73616374696F6E206661696C656400000000000000 PUSH1 0x44 DUP3 ADD MSTORE PUSH1 0x64 ADD PUSH2 0x78F JUMP JUMPDEST POP POP PUSH1 0x1 DUP1 SSTORE JUMP JUMPDEST PUSH1 0x0 PUSH2 0x11D3 PUSH1 0x9 PUSH1 0xA PUSH2 0x2334 JUMP JUMPDEST PUSH2 0x11E4 SWAP1 PUSH7 0x38D7EA4C68000 PUSH2 0x23DF JUMP JUMPDEST PUSH1 0xE SLOAD LT ISZERO PUSH2 0x11F3 JUMPI POP PUSH1 0x1 SWAP1 JUMP JUMPDEST PUSH2 0x11FF PUSH1 0x9 PUSH1 0xA PUSH2 0x2334 JUMP JUMPDEST PUSH2 0x1210 SWAP1 PUSH7 0x38D7EA4C68000 PUSH2 0x23DF JUMP JUMPDEST PUSH1 0xE SLOAD PUSH2 0x7D2 SWAP2 SWAP1 PUSH2 0x22D1 JUMP JUMPDEST PUSH1 0x0 SLOAD PUSH1 0x1 PUSH1 0x1 PUSH1 0xA0 SHL SUB AND CALLER EQ PUSH2 0x1247 JUMPI PUSH1 0x40 MLOAD PUSH3 0x461BCD PUSH1 0xE5 SHL DUP2 MSTORE PUSH1 0x4 ADD PUSH2 0x78F SWAP1 PUSH2 0x21EF JUMP JUMPDEST PUSH1 0x10 SWAP2 SWAP1 SWAP2 SSTORE PUSH1 0xF SSTORE JUMP JUMPDEST PUSH1 0x0 SLOAD PUSH1 0x1 PUSH1 0x1 PUSH1 0xA0 SHL SUB AND CALLER EQ PUSH2 0x127C JUMPI PUSH1 0x40 MLOAD PUSH3 0x461BCD PUSH1 0xE5 SHL DUP2 MSTORE PUSH1 0x4 ADD PUSH2 0x78F SWAP1 PUSH2 0x21EF JUMP JUMPDEST TIMESTAMP DUP2 GT PUSH2 0x12CB JUMPI PUSH1 0x40 MLOAD PUSH3 0x461BCD PUSH1 0xE5 SHL DUP2 MSTORE PUSH1 0x20 PUSH1 0x4 DUP3 ADD MSTORE PUSH1 0x1C PUSH1 0x24 DUP3 ADD MSTORE PUSH32 0x43616E6E6F742062652061206461746520696E20746865207061737400000000 PUSH1 0x44 DUP3 ADD MSTORE PUSH1 0x64 ADD PUSH2 0x78F JUMP JUMPDEST PUSH2 0x12D8 TIMESTAMP PUSH3 0x28DE80 PUSH2 0x2294 JUMP JUMPDEST DUP2 LT PUSH2 0x1338 JUMPI PUSH1 0x40 MLOAD PUSH3 0x461BCD PUSH1 0xE5 SHL DUP2 MSTORE PUSH1 0x20 PUSH1 0x4 DUP3 ADD MSTORE PUSH1 0x29 PUSH1 0x24 DUP3 ADD MSTORE PUSH32 0x43616E6E6F74206265206D6F7265207468616E203331206461797320696E2074 PUSH1 0x44 DUP3 ADD MSTORE PUSH9 0x686520667574757265 PUSH1 0xB8 SHL PUSH1 0x64 DUP3 ADD MSTORE PUSH1 0x84 ADD PUSH2 0x78F JUMP JUMPDEST PUSH1 0x1 PUSH1 0x1 PUSH1 0xA0 SHL SUB SWAP1 SWAP2 AND PUSH1 0x0 SWAP1 DUP2 MSTORE PUSH1 0xC PUSH1 0x20 MSTORE PUSH1 0x40 SWAP1 KECCAK256 SSTORE JUMP JUMPDEST PUSH1 0x0 SLOAD PUSH1 0x1 PUSH1 0x1 PUSH1 0xA0 SHL SUB AND CALLER EQ PUSH2 0x137E JUMPI PUSH1 0x40 MLOAD PUSH3 0x461BCD PUSH1 0xE5 SHL DUP2 MSTORE PUSH1 0x4 ADD PUSH2 0x78F SWAP1 PUSH2 0x21EF JUMP JUMPDEST PUSH1 0x6 SSTORE JUMP JUMPDEST PUSH1 0x0 SLOAD PUSH1 0x1 PUSH1 0x1 PUSH1 0xA0 SHL SUB AND CALLER EQ PUSH2 0x13AD JUMPI PUSH1 0x40 MLOAD PUSH3 0x461BCD PUSH1 0xE5 SHL DUP2 MSTORE PUSH1 0x4 ADD PUSH2 0x78F SWAP1 PUSH2 0x21EF JUMP JUMPDEST PUSH1 0x1 DUP4 PUSH1 0xFF AND LT ISZERO DUP1 ISZERO PUSH2 0x13C5 JUMPI POP PUSH1 0x6 DUP4 PUSH1 0xFF AND GT ISZERO JUMPDEST PUSH2 0x1421 JUMPI PUSH1 0x40 MLOAD PUSH3 0x461BCD PUSH1 0xE5 SHL DUP2 MSTORE PUSH1 0x20 PUSH1 0x4 DUP3 ADD MSTORE PUSH1 0x27 PUSH1 0x24 DUP3 ADD MSTORE PUSH32 0x4C697175696469747920666565206D757374206265206265747765656E203125 PUSH1 0x44 DUP3 ADD MSTORE PUSH7 0x20616E64203625 PUSH1 0xC8 SHL PUSH1 0x64 DUP3 ADD MSTORE PUSH1 0x84 ADD PUSH2 0x78F JUMP JUMPDEST PUSH1 0x1 DUP3 PUSH1 0xFF AND LT ISZERO DUP1 ISZERO PUSH2 0x1439 JUMPI POP PUSH1 0xF DUP3 PUSH1 0xFF AND GT ISZERO JUMPDEST PUSH2 0x1493 JUMPI PUSH1 0x40 MLOAD PUSH3 0x461BCD PUSH1 0xE5 SHL DUP2 MSTORE PUSH1 0x20 PUSH1 0x4 DUP3 ADD MSTORE PUSH1 0x25 PUSH1 0x24 DUP3 ADD MSTORE PUSH32 0x52657761726420666565206D757374206265206265747765656E20312520616E PUSH1 0x44 DUP3 ADD MSTORE PUSH5 0x6420313525 PUSH1 0xD8 SHL PUSH1 0x64 DUP3 ADD MSTORE PUSH1 0x84 ADD PUSH2 0x78F JUMP JUMPDEST PUSH1 0x2 DUP2 PUSH1 0xFF AND GT ISZERO PUSH2 0x14FA JUMPI PUSH1 0x40 MLOAD PUSH3 0x461BCD PUSH1 0xE5 SHL DUP2 MSTORE PUSH1 0x20 PUSH1 0x4 DUP3 ADD MSTORE PUSH1 0x2A PUSH1 0x24 DUP3 ADD MSTORE PUSH32 0x446973747269627574696F6E20666565206D757374206265206265747765656E PUSH1 0x44 DUP3 ADD MSTORE PUSH10 0x20302520616E64203225 PUSH1 0xB0 SHL PUSH1 0x64 DUP3 ADD MSTORE PUSH1 0x84 ADD PUSH2 0x78F JUMP JUMPDEST PUSH1 0xF DUP2 PUSH2 0x1507 DUP5 DUP7 PUSH2 0x22AC JUMP JUMPDEST PUSH2 0x1511 SWAP2 SWAP1 PUSH2 0x22AC JUMP JUMPDEST PUSH1 0xFF AND GT ISZERO PUSH2 0x1562 JUMPI PUSH1 0x40 MLOAD PUSH3 0x461BCD PUSH1 0xE5 SHL DUP2 MSTORE PUSH1 0x20 PUSH1 0x4 DUP3 ADD MSTORE PUSH1 0x1C PUSH1 0x24 DUP3 ADD MSTORE PUSH32 0x546F74616C20666565732063616E6E6F74206578636565642031352500000000 PUSH1 0x44 DUP3 ADD MSTORE PUSH1 0x64 ADD PUSH2 0x78F JUMP JUMPDEST PUSH1 0x2 DUP1 SLOAD PUSH1 0xFF DUP5 DUP2 AND PUSH3 0x10000 SWAP1 DUP2 MUL PUSH3 0xFF0000 NOT DUP9 DUP5 AND PUSH2 0x100 SWAP1 DUP2 MUL PUSH2 0xFFFF NOT SWAP1 SWAP7 AND DUP6 DUP10 AND OR SWAP6 SWAP1 SWAP6 OR AND OR SWAP4 DUP5 SWAP1 SSTORE PUSH2 0x15A6 SWAP4 SWAP3 DUP4 DIV DUP3 AND SWAP3 DIV AND PUSH2 0x22AC JUMP JUMPDEST PUSH1 0x2 PUSH1 0x3 PUSH2 0x100 EXP DUP2 SLOAD DUP2 PUSH1 0xFF MUL NOT AND SWAP1 DUP4 PUSH1 0xFF AND MUL OR SWAP1 SSTORE POP POP POP POP JUMP JUMPDEST PUSH1 0x1 PUSH1 0x1 PUSH1 0xA0 SHL SUB DUP4 AND PUSH2 0x1627 JUMPI PUSH1 0x40 MLOAD PUSH3 0x461BCD PUSH1 0xE5 SHL DUP2 MSTORE PUSH1 0x20 PUSH1 0x4 DUP3 ADD MSTORE PUSH1 0x24 DUP1 DUP3 ADD MSTORE PUSH32 0x43616E6E6F7420617070726F76652066726F6D20746865207A65726F20616464 PUSH1 0x44 DUP3 ADD MSTORE PUSH4 0x72657373 PUSH1 0xE0 SHL PUSH1 0x64 DUP3 ADD MSTORE PUSH1 0x84 ADD PUSH2 0x78F JUMP JUMPDEST PUSH1 0x1 PUSH1 0x1 PUSH1 0xA0 SHL SUB DUP3 AND PUSH2 0x1688 JUMPI PUSH1 0x40 MLOAD PUSH3 0x461BCD PUSH1 0xE5 SHL DUP2 MSTORE PUSH1 0x20 PUSH1 0x4 DUP3 ADD MSTORE PUSH1 0x22 PUSH1 0x24 DUP3 ADD MSTORE PUSH32 0x43616E6E6F7420617070726F766520746F20746865207A65726F206164647265 PUSH1 0x44 DUP3 ADD MSTORE PUSH2 0x7373 PUSH1 0xF0 SHL PUSH1 0x64 DUP3 ADD MSTORE PUSH1 0x84 ADD PUSH2 0x78F JUMP JUMPDEST PUSH1 0x1 PUSH1 0x1 PUSH1 0xA0 SHL SUB DUP4 DUP2 AND PUSH1 0x0 DUP2 DUP2 MSTORE PUSH1 0x4 PUSH1 0x20 SWAP1 DUP2 MSTORE PUSH1 0x40 DUP1 DUP4 KECCAK256 SWAP5 DUP8 AND DUP1 DUP5 MSTORE SWAP5 DUP3 MSTORE SWAP2 DUP3 SWAP1 KECCAK256 DUP6 SWAP1 SSTORE SWAP1 MLOAD DUP5 DUP2 MSTORE PUSH32 0x8C5BE1E5EBEC7D5BD14F71427D1E84F3DD0314C0F7B2291E5B200AC8C7C3B925 SWAP2 ADD PUSH1 0x40 MLOAD DUP1 SWAP2 SUB SWAP1 LOG3 POP POP POP JUMP JUMPDEST PUSH1 0x1 PUSH1 0x1 PUSH1 0xA0 SHL SUB DUP4 AND PUSH2 0x1755 JUMPI PUSH1 0x40 MLOAD PUSH3 0x461BCD PUSH1 0xE5 SHL DUP2 MSTORE PUSH1 0x20 PUSH1 0x4 DUP3 ADD MSTORE PUSH1 0x2D PUSH1 0x24 DUP3 ADD MSTORE PUSH32 0x5472616E736665722066726F6D20746865207A65726F20616464726573732069 PUSH1 0x44 DUP3 ADD MSTORE PUSH13 0x1CC81B9BDD08185B1B1BDDD959 PUSH1 0x9A SHL PUSH1 0x64 DUP3 ADD MSTORE PUSH1 0x84 ADD PUSH2 0x78F JUMP JUMPDEST PUSH1 0x1 PUSH1 0x1 PUSH1 0xA0 SHL SUB DUP3 AND PUSH2 0x17BF JUMPI PUSH1 0x40 MLOAD PUSH3 0x461BCD PUSH1 0xE5 SHL DUP2 MSTORE PUSH1 0x20 PUSH1 0x4 DUP3 ADD MSTORE PUSH1 0x2B PUSH1 0x24 DUP3 ADD MSTORE PUSH32 0x5472616E7366657220746F20746865207A65726F206164647265737320697320 PUSH1 0x44 DUP3 ADD MSTORE PUSH11 0x1B9BDD08185B1B1BDDD959 PUSH1 0xAA SHL PUSH1 0x64 DUP3 ADD MSTORE PUSH1 0x84 ADD PUSH2 0x78F JUMP JUMPDEST PUSH1 0x0 DUP2 GT PUSH2 0x1821 JUMPI PUSH1 0x40 MLOAD PUSH3 0x461BCD PUSH1 0xE5 SHL DUP2 MSTORE PUSH1 0x20 PUSH1 0x4 DUP3 ADD MSTORE PUSH1 0x29 PUSH1 0x24 DUP3 ADD MSTORE PUSH32 0x5472616E7366657220616D6F756E74206D757374206265206772656174657220 PUSH1 0x44 DUP3 ADD MSTORE PUSH9 0x7468616E207A65726F PUSH1 0xB8 SHL PUSH1 0x64 DUP3 ADD MSTORE PUSH1 0x84 ADD PUSH2 0x78F JUMP JUMPDEST PUSH1 0x1 PUSH1 0x1 PUSH1 0xA0 SHL SUB DUP4 AND PUSH1 0x0 SWAP1 DUP2 MSTORE PUSH1 0x12 PUSH1 0x20 MSTORE PUSH1 0x40 SWAP1 KECCAK256 SLOAD PUSH1 0xFF AND ISZERO DUP1 ISZERO PUSH2 0x1863 JUMPI POP PUSH1 0x1 PUSH1 0x1 PUSH1 0xA0 SHL SUB DUP3 AND PUSH1 0x0 SWAP1 DUP2 MSTORE PUSH1 0x12 PUSH1 0x20 MSTORE PUSH1 0x40 SWAP1 KECCAK256 SLOAD PUSH1 0xFF AND ISZERO JUMPDEST ISZERO PUSH2 0x18CE JUMPI PUSH1 0x11 SLOAD DUP2 GT ISZERO PUSH2 0x18CE JUMPI PUSH1 0x40 MLOAD PUSH3 0x461BCD PUSH1 0xE5 SHL DUP2 MSTORE PUSH1 0x20 PUSH1 0x4 DUP3 ADD MSTORE PUSH1 0x2B PUSH1 0x24 DUP3 ADD MSTORE PUSH32 0x5472616E7366657220616D6F756E74206578636565647320746865206D617869 PUSH1 0x44 DUP3 ADD MSTORE PUSH11 0x1B5D5B48185B1B1BDDD959 PUSH1 0xAA SHL PUSH1 0x64 DUP3 ADD MSTORE PUSH1 0x84 ADD PUSH2 0x78F JUMP JUMPDEST PUSH2 0x18D8 DUP4 DUP4 PUSH2 0x1A47 JUMP JUMPDEST PUSH2 0x18EA PUSH2 0x18E4 DUP4 PUSH2 0xC72 JUMP JUMPDEST DUP3 PUSH2 0xD51 JUMP JUMPDEST PUSH1 0x1 PUSH1 0x1 PUSH1 0xA0 SHL SUB DUP4 AND PUSH1 0x0 SWAP1 DUP2 MSTORE PUSH1 0xC PUSH1 0x20 MSTORE PUSH1 0x40 DUP2 KECCAK256 DUP1 SLOAD SWAP1 SWAP2 SWAP1 PUSH2 0x1912 SWAP1 DUP5 SWAP1 PUSH2 0x2294 JUMP JUMPDEST SWAP1 SWAP2 SSTORE POP PUSH2 0x1924 SWAP1 POP PUSH2 0x18E4 DUP5 PUSH2 0xC72 JUMP JUMPDEST PUSH1 0x1 PUSH1 0x1 PUSH1 0xA0 SHL SUB DUP5 AND PUSH1 0x0 SWAP1 DUP2 MSTORE PUSH1 0xC PUSH1 0x20 MSTORE PUSH1 0x40 DUP2 KECCAK256 DUP1 SLOAD SWAP1 SWAP2 SWAP1 PUSH2 0x194C SWAP1 DUP5 SWAP1 PUSH2 0x2294 JUMP JUMPDEST SWAP1 SWAP2 SSTORE POP PUSH1 0x0 SWAP1 POP DUP1 PUSH2 0x195F DUP6 DUP6 PUSH2 0x1B29 JUMP JUMPDEST SWAP1 SWAP3 POP SWAP1 POP PUSH1 0x0 PUSH1 0x64 PUSH2 0x1972 DUP5 DUP7 PUSH2 0x23DF JUMP JUMPDEST PUSH2 0x197C SWAP2 SWAP1 PUSH2 0x22D1 JUMP JUMPDEST SWAP1 POP PUSH1 0x0 PUSH1 0x64 PUSH2 0x198C DUP5 DUP8 PUSH2 0x23DF JUMP JUMPDEST PUSH2 0x1996 SWAP2 SWAP1 PUSH2 0x22D1 JUMP JUMPDEST SWAP1 POP PUSH1 0x0 DUP2 PUSH2 0x19A5 DUP5 DUP9 PUSH2 0x23FE JUMP JUMPDEST PUSH2 0x19AF SWAP2 SWAP1 PUSH2 0x23FE JUMP JUMPDEST SWAP1 POP PUSH2 0x19BE DUP9 DUP9 DUP9 DUP7 DUP7 PUSH2 0x1BBA JUMP JUMPDEST DUP3 PUSH1 0x7 PUSH1 0x0 DUP3 DUP3 SLOAD PUSH2 0x19D0 SWAP2 SWAP1 PUSH2 0x2294 JUMP JUMPDEST SWAP3 POP POP DUP2 SWAP1 SSTORE POP DUP2 PUSH1 0x8 PUSH1 0x0 DUP3 DUP3 SLOAD PUSH2 0x19E9 SWAP2 SWAP1 PUSH2 0x2294 JUMP JUMPDEST SWAP3 POP POP DUP2 SWAP1 SSTORE POP DUP7 PUSH1 0x1 PUSH1 0x1 PUSH1 0xA0 SHL SUB AND DUP9 PUSH1 0x1 PUSH1 0x1 PUSH1 0xA0 SHL SUB AND PUSH32 0xDDF252AD1BE2C89B69C2B068FC378DAA952BA7F163C4A11628F55A4DF523B3EF DUP4 PUSH1 0x40 MLOAD PUSH2 0x1A35 SWAP2 DUP2 MSTORE PUSH1 0x20 ADD SWAP1 JUMP JUMPDEST PUSH1 0x40 MLOAD DUP1 SWAP2 SUB SWAP1 LOG3 POP POP POP POP POP POP POP POP JUMP JUMPDEST PUSH1 0x5 SLOAD PUSH1 0xFF AND PUSH2 0x1A55 JUMPI POP POP JUMP JUMPDEST PUSH1 0x0 PUSH2 0x1A60 ADDRESS PUSH2 0xC72 JUMP JUMPDEST SWAP1 POP PUSH3 0x186A0 PUSH2 0x1A72 PUSH1 0x9 PUSH1 0xA PUSH2 0x2334 JUMP JUMPDEST PUSH2 0x1A83 SWAP1 PUSH7 0x38D7EA4C68000 PUSH2 0x23DF JUMP JUMPDEST PUSH2 0x1A8D SWAP2 SWAP1 PUSH2 0x22D1 JUMP JUMPDEST DUP2 LT PUSH2 0x1B24 JUMPI PUSH3 0x186A0 PUSH2 0x1AA3 PUSH1 0x9 PUSH1 0xA PUSH2 0x2334 JUMP JUMPDEST PUSH2 0x1AB4 SWAP1 PUSH7 0x38D7EA4C68000 PUSH2 0x23DF JUMP JUMPDEST PUSH2 0x1ABE SWAP2 SWAP1 PUSH2 0x22D1 JUMP JUMPDEST SWAP1 POP PUSH1 0x11 SLOAD DUP2 GT ISZERO PUSH2 0x1ACF JUMPI POP PUSH1 0x11 SLOAD JUMPDEST PUSH1 0x0 PUSH1 0x1 PUSH1 0x1 PUSH1 0xA0 SHL SUB DUP5 AND ADDRESS EQ DUP1 ISZERO PUSH2 0x1AF6 JUMPI POP PUSH1 0x15 SLOAD PUSH1 0x1 PUSH1 0x1 PUSH1 0xA0 SHL SUB DUP5 DUP2 AND SWAP2 AND EQ JUMPDEST SWAP1 POP DUP1 ISZERO DUP1 ISZERO PUSH2 0x1B14 JUMPI POP PUSH1 0x15 SLOAD PUSH1 0x1 PUSH1 0x1 PUSH1 0xA0 SHL SUB DUP6 DUP2 AND SWAP2 AND EQ ISZERO JUMPDEST ISZERO PUSH2 0x1B22 JUMPI PUSH2 0x1B22 DUP3 PUSH2 0x1CAF JUMP JUMPDEST POP JUMPDEST POP POP POP JUMP JUMPDEST PUSH1 0x0 DUP1 PUSH1 0x0 PUSH1 0x5 PUSH1 0x1 SWAP1 SLOAD SWAP1 PUSH2 0x100 EXP SWAP1 DIV PUSH1 0xFF AND DUP1 ISZERO PUSH2 0x1B63 JUMPI POP PUSH1 0x1 PUSH1 0x1 PUSH1 0xA0 SHL SUB DUP6 AND PUSH1 0x0 SWAP1 DUP2 MSTORE PUSH1 0xB PUSH1 0x20 MSTORE PUSH1 0x40 SWAP1 KECCAK256 SLOAD PUSH1 0xFF AND ISZERO JUMPDEST DUP1 ISZERO PUSH2 0x1B88 JUMPI POP PUSH1 0x1 PUSH1 0x1 PUSH1 0xA0 SHL SUB DUP5 AND PUSH1 0x0 SWAP1 DUP2 MSTORE PUSH1 0xB PUSH1 0x20 MSTORE PUSH1 0x40 SWAP1 KECCAK256 SLOAD PUSH1 0xFF AND ISZERO JUMPDEST SWAP1 POP DUP1 ISZERO PUSH2 0x1BAA JUMPI POP POP PUSH1 0x2 SLOAD PUSH1 0xFF DUP1 DUP3 AND SWAP3 POP PUSH4 0x1000000 SWAP1 SWAP2 DIV AND PUSH2 0x1BB3 JUMP JUMPDEST PUSH1 0x0 DUP1 SWAP3 POP SWAP3 POP POP JUMPDEST SWAP3 POP SWAP3 SWAP1 POP JUMP JUMPDEST PUSH1 0x0 PUSH2 0x1BC4 PUSH2 0x11C5 JUMP JUMPDEST SWAP1 POP PUSH1 0x0 PUSH2 0x1BD2 DUP3 DUP7 PUSH2 0x23DF JUMP JUMPDEST SWAP1 POP PUSH1 0x0 PUSH2 0x1BE0 DUP4 DUP7 PUSH2 0x23DF JUMP JUMPDEST SWAP1 POP PUSH1 0x0 PUSH2 0x1BEE DUP5 DUP7 PUSH2 0x23DF JUMP JUMPDEST SWAP1 POP PUSH1 0x0 DUP2 PUSH2 0x1BFD DUP5 DUP7 PUSH2 0x23FE JUMP JUMPDEST PUSH2 0x1C07 SWAP2 SWAP1 PUSH2 0x23FE JUMP JUMPDEST PUSH1 0x1 PUSH1 0x1 PUSH1 0xA0 SHL SUB DUP12 AND PUSH1 0x0 SWAP1 DUP2 MSTORE PUSH1 0x3 PUSH1 0x20 MSTORE PUSH1 0x40 DUP2 KECCAK256 DUP1 SLOAD SWAP3 SWAP4 POP DUP7 SWAP3 SWAP1 SWAP2 SWAP1 PUSH2 0x1C34 SWAP1 DUP5 SWAP1 PUSH2 0x23FE JUMP JUMPDEST SWAP1 SWAP2 SSTORE POP POP PUSH1 0x1 PUSH1 0x1 PUSH1 0xA0 SHL SUB DUP10 AND PUSH1 0x0 SWAP1 DUP2 MSTORE PUSH1 0x3 PUSH1 0x20 MSTORE PUSH1 0x40 DUP2 KECCAK256 DUP1 SLOAD DUP4 SWAP3 SWAP1 PUSH2 0x1C61 SWAP1 DUP5 SWAP1 PUSH2 0x2294 JUMP JUMPDEST SWAP1 SWAP2 SSTORE POP POP ADDRESS PUSH1 0x0 SWAP1 DUP2 MSTORE PUSH1 0x3 PUSH1 0x20 MSTORE PUSH1 0x40 DUP2 KECCAK256 DUP1 SLOAD DUP5 SWAP3 SWAP1 PUSH2 0x1C85 SWAP1 DUP5 SWAP1 PUSH2 0x2294 JUMP JUMPDEST SWAP3 POP POP DUP2 SWAP1 SSTORE POP DUP3 PUSH1 0xE PUSH1 0x0 DUP3 DUP3 SLOAD PUSH2 0x1C9E SWAP2 SWAP1 PUSH2 0x23FE JUMP JUMPDEST SWAP1 SWAP2 SSTORE POP POP POP POP POP POP POP POP POP POP POP POP JUMP JUMPDEST PUSH1 0x2 SLOAD PUSH1 0x0 SWAP1 PUSH1 0xFF PUSH4 0x1000000 DUP3 DIV DUP2 AND SWAP2 PUSH2 0x1CD2 SWAP2 PUSH2 0x100 SWAP1 SWAP2 DIV AND DUP5 PUSH2 0x23DF JUMP JUMPDEST PUSH2 0x1CDC SWAP2 SWAP1 PUSH2 0x22D1 JUMP JUMPDEST SWAP1 POP PUSH1 0x0 PUSH2 0x1CEA DUP3 DUP5 PUSH2 0x23FE JUMP JUMPDEST SWAP1 POP PUSH1 0x0 PUSH2 0x1CF9 PUSH1 0x2 DUP5 PUSH2 0x22D1 JUMP JUMPDEST SWAP1 POP DUP1 PUSH1 0x0 PUSH2 0x1D08 DUP3 DUP6 PUSH2 0x2294 JUMP JUMPDEST SWAP1 POP PUSH1 0x0 PUSH2 0x1D15 DUP3 PUSH2 0x1E77 JUMP JUMPDEST SWAP1 POP PUSH1 0x0 DUP3 PUSH2 0x1D24 DUP7 DUP5 PUSH2 0x23DF JUMP JUMPDEST PUSH2 0x1D2E SWAP2 SWAP1 PUSH2 0x22D1 JUMP JUMPDEST PUSH1 0x14 SLOAD SWAP1 SWAP2 POP PUSH1 0x0 SWAP1 PUSH1 0x1 PUSH1 0x1 PUSH1 0xA0 SHL SUB AND PUSH4 0xF305D719 DUP4 ADDRESS DUP9 DUP6 DUP1 PUSH2 0x1D5C PUSH1 0x0 SLOAD PUSH1 0x1 PUSH1 0x1 PUSH1 0xA0 SHL SUB AND SWAP1 JUMP JUMPDEST PUSH2 0x1D68 TIMESTAMP PUSH2 0x168 PUSH2 0x2294 JUMP JUMPDEST PUSH1 0x40 MLOAD PUSH1 0xE0 DUP10 SWAP1 SHL PUSH1 0x1 PUSH1 0x1 PUSH1 0xE0 SHL SUB NOT AND DUP2 MSTORE PUSH1 0x1 PUSH1 0x1 PUSH1 0xA0 SHL SUB SWAP7 DUP8 AND PUSH1 0x4 DUP3 ADD MSTORE PUSH1 0x24 DUP2 ADD SWAP6 SWAP1 SWAP6 MSTORE PUSH1 0x44 DUP6 ADD SWAP4 SWAP1 SWAP4 MSTORE PUSH1 0x64 DUP5 ADD SWAP2 SWAP1 SWAP2 MSTORE SWAP1 SWAP3 AND PUSH1 0x84 DUP3 ADD MSTORE PUSH1 0xA4 DUP2 ADD SWAP2 SWAP1 SWAP2 MSTORE PUSH1 0xC4 ADD PUSH1 0x60 PUSH1 0x40 MLOAD DUP1 DUP4 SUB DUP2 DUP6 DUP9 DUP1 EXTCODESIZE ISZERO DUP1 ISZERO PUSH2 0x1DD0 JUMPI PUSH1 0x0 DUP1 REVERT JUMPDEST POP GAS CALL ISZERO DUP1 ISZERO PUSH2 0x1DE4 JUMPI RETURNDATASIZE PUSH1 0x0 DUP1 RETURNDATACOPY RETURNDATASIZE PUSH1 0x0 REVERT JUMPDEST POP POP POP POP POP PUSH1 0x40 MLOAD RETURNDATASIZE PUSH1 0x1F NOT PUSH1 0x1F DUP3 ADD AND DUP3 ADD DUP1 PUSH1 0x40 MSTORE POP DUP2 ADD SWAP1 PUSH2 0x1E09 SWAP2 SWAP1 PUSH2 0x212D JUMP JUMPDEST POP SWAP2 POP POP DUP1 PUSH1 0x9 PUSH1 0x0 DUP3 DUP3 SLOAD PUSH2 0x1E1F SWAP2 SWAP1 PUSH2 0x2294 JUMP JUMPDEST SWAP1 SWAP2 SSTORE POP POP PUSH1 0x40 DUP1 MLOAD DUP6 DUP2 MSTORE PUSH1 0x20 DUP2 ADD DUP6 SWAP1 MSTORE SWAP1 DUP2 ADD DUP7 SWAP1 MSTORE PUSH1 0x60 DUP2 ADD DUP4 SWAP1 MSTORE PUSH32 0x1073C37866404DC5CCF364F61B6850F80619085A9A66BB67B4A9681C2AC61458 SWAP1 PUSH1 0x80 ADD PUSH1 0x40 MLOAD DUP1 SWAP2 SUB SWAP1 LOG1 POP POP POP POP POP POP POP POP POP JUMP JUMPDEST PUSH1 0x40 DUP1 MLOAD PUSH1 0x2 DUP1 DUP3 MSTORE PUSH1 0x60 DUP3 ADD DUP4 MSTORE PUSH1 0x0 SWAP3 SELFBALANCE SWAP3 DUP5 SWAP3 SWAP1 SWAP2 PUSH1 0x20 DUP4 ADD SWAP1 DUP1 CALLDATASIZE DUP4 CALLDATACOPY ADD SWAP1 POP POP SWAP1 POP ADDRESS DUP2 PUSH1 0x0 DUP2 MLOAD DUP2 LT PUSH2 0x1EC0 JUMPI PUSH4 0x4E487B71 PUSH1 0xE0 SHL PUSH1 0x0 MSTORE PUSH1 0x32 PUSH1 0x4 MSTORE PUSH1 0x24 PUSH1 0x0 REVERT JUMPDEST PUSH1 0x1 PUSH1 0x1 PUSH1 0xA0 SHL SUB SWAP3 DUP4 AND PUSH1 0x20 SWAP2 DUP3 MUL SWAP3 SWAP1 SWAP3 ADD DUP2 ADD SWAP2 SWAP1 SWAP2 MSTORE PUSH1 0x14 SLOAD PUSH1 0x40 DUP1 MLOAD PUSH4 0x15AB88C9 PUSH1 0xE3 SHL DUP2 MSTORE SWAP1 MLOAD SWAP2 SWAP1 SWAP4 AND SWAP3 PUSH4 0xAD5C4648 SWAP3 PUSH1 0x4 DUP1 DUP4 ADD SWAP4 SWAP2 SWAP3 DUP3 SWAP1 SUB ADD DUP2 DUP7 DUP1 EXTCODESIZE ISZERO DUP1 ISZERO PUSH2 0x1F14 JUMPI PUSH1 0x0 DUP1 REVERT JUMPDEST POP GAS STATICCALL ISZERO DUP1 ISZERO PUSH2 0x1F28 JUMPI RETURNDATASIZE PUSH1 0x0 DUP1 RETURNDATACOPY RETURNDATASIZE PUSH1 0x0 REVERT JUMPDEST POP POP POP POP PUSH1 0x40 MLOAD RETURNDATASIZE PUSH1 0x1F NOT PUSH1 0x1F DUP3 ADD AND DUP3 ADD DUP1 PUSH1 0x40 MSTORE POP DUP2 ADD SWAP1 PUSH2 0x1F4C SWAP2 SWAP1 PUSH2 0x2035 JUMP JUMPDEST DUP2 PUSH1 0x1 DUP2 MLOAD DUP2 LT PUSH2 0x1F6D JUMPI PUSH4 0x4E487B71 PUSH1 0xE0 SHL PUSH1 0x0 MSTORE PUSH1 0x32 PUSH1 0x4 MSTORE PUSH1 0x24 PUSH1 0x0 REVERT JUMPDEST PUSH1 0x1 PUSH1 0x1 PUSH1 0xA0 SHL SUB SWAP3 DUP4 AND PUSH1 0x20 SWAP2 DUP3 MUL SWAP3 SWAP1 SWAP3 ADD ADD MSTORE PUSH1 0x14 SLOAD AND PUSH4 0x791AC947 DUP6 PUSH1 0x0 DUP5 ADDRESS PUSH2 0x1F9D TIMESTAMP PUSH2 0x168 PUSH2 0x2294 JUMP JUMPDEST PUSH1 0x40 MLOAD DUP7 PUSH4 0xFFFFFFFF AND PUSH1 0xE0 SHL DUP2 MSTORE PUSH1 0x4 ADD PUSH2 0x1FBD SWAP6 SWAP5 SWAP4 SWAP3 SWAP2 SWAP1 PUSH2 0x2224 JUMP JUMPDEST PUSH1 0x0 PUSH1 0x40 MLOAD DUP1 DUP4 SUB DUP2 PUSH1 0x0 DUP8 DUP1 EXTCODESIZE ISZERO DUP1 ISZERO PUSH2 0x1FD7 JUMPI PUSH1 0x0 DUP1 REVERT JUMPDEST POP GAS CALL ISZERO DUP1 ISZERO PUSH2 0x1FEB JUMPI RETURNDATASIZE PUSH1 0x0 DUP1 RETURNDATACOPY RETURNDATASIZE PUSH1 0x0 REVERT JUMPDEST POP POP POP POP DUP2 SELFBALANCE PUSH2 0x1FFB SWAP2 SWAP1 PUSH2 0x23FE JUMP JUMPDEST SWAP5 SWAP4 POP POP POP POP JUMP JUMPDEST DUP1 CALLDATALOAD PUSH1 0xFF DUP2 AND DUP2 EQ PUSH2 0x2014 JUMPI PUSH1 0x0 DUP1 REVERT JUMPDEST SWAP2 SWAP1 POP JUMP JUMPDEST PUSH1 0x0 PUSH1 0x20 DUP3 DUP5 SUB SLT ISZERO PUSH2 0x202A JUMPI DUP1 DUP2 REVERT JUMPDEST DUP2 CALLDATALOAD PUSH2 0xCA4 DUP2 PUSH2 0x242B JUMP JUMPDEST PUSH1 0x0 PUSH1 0x20 DUP3 DUP5 SUB SLT ISZERO PUSH2 0x2046 JUMPI DUP1 DUP2 REVERT JUMPDEST DUP2 MLOAD PUSH2 0xCA4 DUP2 PUSH2 0x242B JUMP JUMPDEST PUSH1 0x0 DUP1 PUSH1 0x40 DUP4 DUP6 SUB SLT ISZERO PUSH2 0x2063 JUMPI DUP1 DUP2 REVERT JUMPDEST DUP3 CALLDATALOAD PUSH2 0x206E DUP2 PUSH2 0x242B JUMP JUMPDEST SWAP2 POP PUSH1 0x20 DUP4 ADD CALLDATALOAD PUSH2 0x207E DUP2 PUSH2 0x242B JUMP JUMPDEST DUP1 SWAP2 POP POP SWAP3 POP SWAP3 SWAP1 POP JUMP JUMPDEST PUSH1 0x0 DUP1 PUSH1 0x0 PUSH1 0x60 DUP5 DUP7 SUB SLT ISZERO PUSH2 0x209D JUMPI DUP1 DUP2 REVERT JUMPDEST DUP4 CALLDATALOAD PUSH2 0x20A8 DUP2 PUSH2 0x242B JUMP JUMPDEST SWAP3 POP PUSH1 0x20 DUP5 ADD CALLDATALOAD PUSH2 0x20B8 DUP2 PUSH2 0x242B JUMP JUMPDEST SWAP3 SWAP6 SWAP3 SWAP5 POP POP POP PUSH1 0x40 SWAP2 SWAP1 SWAP2 ADD CALLDATALOAD SWAP1 JUMP JUMPDEST PUSH1 0x0 DUP1 PUSH1 0x40 DUP4 DUP6 SUB SLT ISZERO PUSH2 0x20DB JUMPI DUP2 DUP3 REVERT JUMPDEST DUP3 CALLDATALOAD PUSH2 0x20E6 DUP2 PUSH2 0x242B JUMP JUMPDEST SWAP5 PUSH1 0x20 SWAP4 SWAP1 SWAP4 ADD CALLDATALOAD SWAP4 POP POP POP JUMP JUMPDEST PUSH1 0x0 PUSH1 0x20 DUP3 DUP5 SUB SLT ISZERO PUSH2 0x2105 JUMPI DUP1 DUP2 REVERT JUMPDEST POP CALLDATALOAD SWAP2 SWAP1 POP JUMP JUMPDEST PUSH1 0x0 DUP1 PUSH1 0x40 DUP4 DUP6 SUB SLT ISZERO PUSH2 0x211E JUMPI DUP2 DUP3 REVERT JUMPDEST POP POP DUP1 CALLDATALOAD SWAP3 PUSH1 0x20 SWAP1 SWAP2 ADD CALLDATALOAD SWAP2 POP JUMP JUMPDEST PUSH1 0x0 DUP1 PUSH1 0x0 PUSH1 0x60 DUP5 DUP7 SUB SLT ISZERO PUSH2 0x2141 JUMPI DUP3 DUP4 REVERT JUMPDEST DUP4 MLOAD SWAP3 POP PUSH1 0x20 DUP5 ADD MLOAD SWAP2 POP PUSH1 0x40 DUP5 ADD MLOAD SWAP1 POP SWAP3 POP SWAP3 POP SWAP3 JUMP JUMPDEST PUSH1 0x0 DUP1 PUSH1 0x0 PUSH1 0x60 DUP5 DUP7 SUB SLT ISZERO PUSH2 0x216E JUMPI DUP3 DUP4 REVERT JUMPDEST PUSH2 0x2177 DUP5 PUSH2 0x2003 JUMP JUMPDEST SWAP3 POP PUSH2 0x2185 PUSH1 0x20 DUP6 ADD PUSH2 0x2003 JUMP JUMPDEST SWAP2 POP PUSH2 0x2193 PUSH1 0x40 DUP6 ADD PUSH2 0x2003 JUMP JUMPDEST SWAP1 POP SWAP3 POP SWAP3 POP SWAP3 JUMP JUMPDEST PUSH1 0x0 PUSH1 0x20 DUP1 DUP4 MSTORE DUP4 MLOAD DUP1 DUP3 DUP6 ADD MSTORE DUP3 JUMPDEST DUP2 DUP2 LT ISZERO PUSH2 0x21C8 JUMPI DUP6 DUP2 ADD DUP4 ADD MLOAD DUP6 DUP3 ADD PUSH1 0x40 ADD MSTORE DUP3 ADD PUSH2 0x21AC JUMP JUMPDEST DUP2 DUP2 GT ISZERO PUSH2 0x21D9 JUMPI DUP4 PUSH1 0x40 DUP4 DUP8 ADD ADD MSTORE JUMPDEST POP PUSH1 0x1F ADD PUSH1 0x1F NOT AND SWAP3 SWAP1 SWAP3 ADD PUSH1 0x40 ADD SWAP4 SWAP3 POP POP POP JUMP JUMPDEST PUSH1 0x20 DUP1 DUP3 MSTORE DUP2 DUP2 ADD MSTORE PUSH32 0x4F776E61626C653A2063616C6C6572206973206E6F7420746865206F776E6572 PUSH1 0x40 DUP3 ADD MSTORE PUSH1 0x60 ADD SWAP1 JUMP JUMPDEST PUSH1 0x0 PUSH1 0xA0 DUP3 ADD DUP8 DUP4 MSTORE PUSH1 0x20 DUP8 DUP2 DUP6 ADD MSTORE PUSH1 0xA0 PUSH1 0x40 DUP6 ADD MSTORE DUP2 DUP8 MLOAD DUP1 DUP5 MSTORE PUSH1 0xC0 DUP7 ADD SWAP2 POP DUP3 DUP10 ADD SWAP4 POP DUP5 JUMPDEST DUP2 DUP2 LT ISZERO PUSH2 0x2273 JUMPI DUP5 MLOAD PUSH1 0x1 PUSH1 0x1 PUSH1 0xA0 SHL SUB AND DUP4 MSTORE SWAP4 DUP4 ADD SWAP4 SWAP2 DUP4 ADD SWAP2 PUSH1 0x1 ADD PUSH2 0x224E JUMP JUMPDEST POP POP PUSH1 0x1 PUSH1 0x1 PUSH1 0xA0 SHL SUB SWAP7 SWAP1 SWAP7 AND PUSH1 0x60 DUP6 ADD MSTORE POP POP POP PUSH1 0x80 ADD MSTORE SWAP4 SWAP3 POP POP POP JUMP JUMPDEST PUSH1 0x0 DUP3 NOT DUP3 GT ISZERO PUSH2 0x22A7 JUMPI PUSH2 0x22A7 PUSH2 0x2415 JUMP JUMPDEST POP ADD SWAP1 JUMP JUMPDEST PUSH1 0x0 PUSH1 0xFF DUP3 AND PUSH1 0xFF DUP5 AND DUP1 PUSH1 0xFF SUB DUP3 GT ISZERO PUSH2 0x22C9 JUMPI PUSH2 0x22C9 PUSH2 0x2415 JUMP JUMPDEST ADD SWAP4 SWAP3 POP POP POP JUMP JUMPDEST PUSH1 0x0 DUP3 PUSH2 0x22EC JUMPI PUSH4 0x4E487B71 PUSH1 0xE0 SHL DUP2 MSTORE PUSH1 0x12 PUSH1 0x4 MSTORE PUSH1 0x24 DUP2 REVERT JUMPDEST POP DIV SWAP1 JUMP JUMPDEST PUSH1 0x1 DUP2 DUP2 JUMPDEST DUP1 DUP6 GT ISZERO PUSH2 0x232C JUMPI DUP2 PUSH1 0x0 NOT DIV DUP3 GT ISZERO PUSH2 0x2312 JUMPI PUSH2 0x2312 PUSH2 0x2415 JUMP JUMPDEST DUP1 DUP6 AND ISZERO PUSH2 0x231F JUMPI SWAP2 DUP2 MUL SWAP2 JUMPDEST SWAP4 DUP5 SHR SWAP4 SWAP1 DUP1 MUL SWAP1 PUSH2 0x22F6 JUMP JUMPDEST POP SWAP3 POP SWAP3 SWAP1 POP JUMP JUMPDEST PUSH1 0x0 PUSH2 0xCA4 PUSH1 0xFF DUP5 AND DUP4 PUSH1 0x0 DUP3 PUSH2 0x234D JUMPI POP PUSH1 0x1 PUSH2 0x75F JUMP JUMPDEST DUP2 PUSH2 0x235A JUMPI POP PUSH1 0x0 PUSH2 0x75F JUMP JUMPDEST DUP2 PUSH1 0x1 DUP2 EQ PUSH2 0x2370 JUMPI PUSH1 0x2 DUP2 EQ PUSH2 0x237A JUMPI PUSH2 0x2396 JUMP JUMPDEST PUSH1 0x1 SWAP2 POP POP PUSH2 0x75F JUMP JUMPDEST PUSH1 0xFF DUP5 GT ISZERO PUSH2 0x238B JUMPI PUSH2 0x238B PUSH2 0x2415 JUMP JUMPDEST POP POP PUSH1 0x1 DUP3 SHL PUSH2 0x75F JUMP JUMPDEST POP PUSH1 0x20 DUP4 LT PUSH2 0x133 DUP4 LT AND PUSH1 0x4E DUP5 LT PUSH1 0xB DUP5 LT AND OR ISZERO PUSH2 0x23B9 JUMPI POP DUP2 DUP2 EXP PUSH2 0x75F JUMP JUMPDEST PUSH2 0x23C3 DUP4 DUP4 PUSH2 0x22F1 JUMP JUMPDEST DUP1 PUSH1 0x0 NOT DIV DUP3 GT ISZERO PUSH2 0x23D7 JUMPI PUSH2 0x23D7 PUSH2 0x2415 JUMP JUMPDEST MUL SWAP4 SWAP3 POP POP POP JUMP JUMPDEST PUSH1 0x0 DUP2 PUSH1 0x0 NOT DIV DUP4 GT DUP3 ISZERO ISZERO AND ISZERO PUSH2 0x23F9 JUMPI PUSH2 0x23F9 PUSH2 0x2415 JUMP JUMPDEST POP MUL SWAP1 JUMP JUMPDEST PUSH1 0x0 DUP3 DUP3 LT ISZERO PUSH2 0x2410 JUMPI PUSH2 0x2410 PUSH2 0x2415 JUMP JUMPDEST POP SUB SWAP1 JUMP JUMPDEST PUSH4 0x4E487B71 PUSH1 0xE0 SHL PUSH1 0x0 MSTORE PUSH1 0x11 PUSH1 0x4 MSTORE PUSH1 0x24 PUSH1 0x0 REVERT JUMPDEST PUSH1 0x1 PUSH1 0x1 PUSH1 0xA0 SHL SUB DUP2 AND DUP2 EQ PUSH2 0x2440 JUMPI PUSH1 0x0 DUP1 REVERT JUMPDEST POP JUMP INVALID LOG2 PUSH5 0x6970667358 0x22 SLT KECCAK256 ORIGIN 0x4B 0x4F EXTCODECOPY JUMPI 0xDA 0xBA 0xB2 PUSH22 0xC37E87E2E9DE97D78811F5FB5350DE43CFDCDADBECFD SWAP5 PUSH5 0x736F6C6343 STOP ADDMOD DIV STOP CALLER 0x4F PUSH24 0x6E61626C653A2063616C6C6572206973206E6F7420746865 KECCAK256 PUSH16 0x776E6572000000000000000000000000 "
		},
		"gasEstimates": {
			"creation": {
				"codeDepositCost": "1867400",
				"executionCost": "infinite",
				"totalCost": "infinite"
			},
			"external": {
				"activate()": "43292",
				"allowance(address,address)": "infinite",
				"amountUntilSwap()": "infinite",
				"approve(address,uint256)": "22560",
				"balanceOf(address)": "infinite",
				"calculateBNBReward(address)": "infinite",
				"calculateDistributionRate()": "infinite",
				"calculateRewardCycleExtension(uint256,uint256)": "infinite",
				"claimReward()": "infinite",
				"claimRewardGasFeeEstimation()": "1125",
				"claimRewardGasFeeRefundThreshold()": "1059",
				"decimals()": "289",
				"decreaseAllowance(address,uint256)": "23615",
				"increaseAllowance(address,uint256)": "23597",
				"isFeeEnabled()": "1106",
				"isSwapEnabled()": "1138",
				"maxTransactionAmount()": "1081",
				"name()": "infinite",
				"nextAvailableClaimDate(address)": "1364",
				"owner()": "1143",
				"pancakeSwapPairAddress()": "1066",
				"pancakeSwapRouterAddress()": "1121",
				"renounceOwnership()": "66865",
				"rewardCyclePeriod()": "302",
				"rewardsClaimed(address)": "1364",
				"setClaimRewardGasFeeOptions(uint256,uint256)": "41210",
				"setFees(uint8,uint8,uint8)": "infinite",
				"setNextAvailableClaimDate(address,uint256)": "21405",
				"setPancakeSwapRouter(address)": "infinite",
				"setRewardCycleExtensionThreshold(uint256)": "21152",
				"setTransactionLimit(uint256)": "21632",
				"symbol()": "infinite",
				"totalAmountOfTokensHeld()": "infinite",
				"totalBNBClaimed()": "1104",
				"totalBNBLiquidityAddedFromFees()": "1038",
				"totalFeesDistributed()": "1060",
				"totalFeesPooled()": "1037",
				"totalSupply()": "757",
				"transfer(address,uint256)": "infinite",
				"transferFrom(address,address,uint256)": "infinite"
			},
			"internal": {
				"calculateFeeRates(address,address)": "3645",
				"doApprove(address,address,uint256)": "infinite",
				"doTransfer(address,address,uint256)": "infinite",
				"executeSwap(uint256)": "infinite",
				"executeSwapIfNeeded(address,address)": "infinite",
				"onOwnershipRenounced(address)": "infinite",
				"swapTokensForBNB(uint256)": "infinite",
				"updateBalances(address,address,uint256,uint256,uint256)": "infinite"
			}
		},
		"methodIdentifiers": {
			"activate()": "0f15f4c0",
			"allowance(address,address)": "dd62ed3e",
			"amountUntilSwap()": "3094375d",
			"approve(address,uint256)": "095ea7b3",
			"balanceOf(address)": "70a08231",
			"calculateBNBReward(address)": "2060995e",
			"calculateDistributionRate()": "c38568f2",
			"calculateRewardCycleExtension(uint256,uint256)": "90ff2124",
			"claimReward()": "b88a802f",
			"claimRewardGasFeeEstimation()": "72a53045",
			"claimRewardGasFeeRefundThreshold()": "9f731e18",
			"decimals()": "313ce567",
			"decreaseAllowance(address,uint256)": "a457c2d7",
			"increaseAllowance(address,uint256)": "39509351",
			"isFeeEnabled()": "0e66dc69",
			"isSwapEnabled()": "351a964d",
			"maxTransactionAmount()": "c8c8ebe4",
			"name()": "06fdde03",
			"nextAvailableClaimDate(address)": "b47fd563",
			"owner()": "8da5cb5b",
			"pancakeSwapPairAddress()": "374061ba",
			"pancakeSwapRouterAddress()": "878f2ca3",
			"renounceOwnership()": "715018a6",
			"rewardCyclePeriod()": "e19b92ec",
			"rewardsClaimed(address)": "d3f730fd",
			"setClaimRewardGasFeeOptions(uint256,uint256)": "cbbf238e",
			"setFees(uint8,uint8,uint8)": "f6794fdb",
			"setNextAvailableClaimDate(address,uint256)": "d8372d35",
			"setPancakeSwapRouter(address)": "4dd9584a",
			"setRewardCycleExtensionThreshold(uint256)": "df90edad",
			"setTransactionLimit(uint256)": "64bfa546",
			"symbol()": "95d89b41",
			"totalAmountOfTokensHeld()": "39e55722",
			"totalBNBClaimed()": "4a3dd27b",
			"totalBNBLiquidityAddedFromFees()": "7a46dc8b",
			"totalFeesDistributed()": "8582c913",
			"totalFeesPooled()": "52bffe98",
			"totalSupply()": "18160ddd",
			"transfer(address,uint256)": "a9059cbb",
			"transferFrom(address,address,uint256)": "23b872dd"
		}
	},
	"abi": [
		{
			"inputs": [
				{
					"internalType": "address",
					"name": "routerAddress",
					"type": "address"
				}
			],
			"stateMutability": "nonpayable",
			"type": "constructor"
		},
		{
			"anonymous": false,
			"inputs": [
				{
					"indexed": true,
					"internalType": "address",
					"name": "owner",
					"type": "address"
				},
				{
					"indexed": true,
					"internalType": "address",
					"name": "spender",
					"type": "address"
				},
				{
					"indexed": false,
					"internalType": "uint256",
					"name": "value",
					"type": "uint256"
				}
			],
			"name": "Approval",
			"type": "event"
		},
		{
			"anonymous": false,
			"inputs": [
				{
					"indexed": false,
					"internalType": "address",
					"name": "recipient",
					"type": "address"
				},
				{
					"indexed": false,
					"internalType": "uint256",
					"name": "bnbReceived",
					"type": "uint256"
				},
				{
					"indexed": false,
					"internalType": "uint256",
					"name": "nextAvailableClaimDate",
					"type": "uint256"
				}
			],
			"name": "BNBClaimed",
			"type": "event"
		},
		{
			"anonymous": false,
			"inputs": [
				{
					"indexed": true,
					"internalType": "address",
					"name": "previousOwner",
					"type": "address"
				},
				{
					"indexed": true,
					"internalType": "address",
					"name": "newOwner",
					"type": "address"
				}
			],
			"name": "OwnershipTransferred",
			"type": "event"
		},
		{
			"anonymous": false,
			"inputs": [
				{
					"indexed": false,
					"internalType": "uint256",
					"name": "tokensSwapped",
					"type": "uint256"
				},
				{
					"indexed": false,
					"internalType": "uint256",
					"name": "bnbReceived",
					"type": "uint256"
				},
				{
					"indexed": false,
					"internalType": "uint256",
					"name": "tokensIntoLiqudity",
					"type": "uint256"
				},
				{
					"indexed": false,
					"internalType": "uint256",
					"name": "bnbIntoLiquidity",
					"type": "uint256"
				}
			],
			"name": "Swapped",
			"type": "event"
		},
		{
			"anonymous": false,
			"inputs": [
				{
					"indexed": true,
					"internalType": "address",
					"name": "from",
					"type": "address"
				},
				{
					"indexed": true,
					"internalType": "address",
					"name": "to",
					"type": "address"
				},
				{
					"indexed": false,
					"internalType": "uint256",
					"name": "value",
					"type": "uint256"
				}
			],
			"name": "Transfer",
			"type": "event"
		},
		{
			"inputs": [],
			"name": "activate",
			"outputs": [],
			"stateMutability": "nonpayable",
			"type": "function"
		},
		{
			"inputs": [
				{
					"internalType": "address",
					"name": "owner",
					"type": "address"
				},
				{
					"internalType": "address",
					"name": "spender",
					"type": "address"
				}
			],
			"name": "allowance",
			"outputs": [
				{
					"internalType": "uint256",
					"name": "",
					"type": "uint256"
				}
			],
			"stateMutability": "view",
			"type": "function"
		},
		{
			"inputs": [],
			"name": "amountUntilSwap",
			"outputs": [
				{
					"internalType": "uint256",
					"name": "",
					"type": "uint256"
				}
			],
			"stateMutability": "view",
			"type": "function"
		},
		{
			"inputs": [
				{
					"internalType": "address",
					"name": "spender",
					"type": "address"
				},
				{
					"internalType": "uint256",
					"name": "amount",
					"type": "uint256"
				}
			],
			"name": "approve",
			"outputs": [
				{
					"internalType": "bool",
					"name": "",
					"type": "bool"
				}
			],
			"stateMutability": "nonpayable",
			"type": "function"
		},
		{
			"inputs": [
				{
					"internalType": "address",
					"name": "account",
					"type": "address"
				}
			],
			"name": "balanceOf",
			"outputs": [
				{
					"internalType": "uint256",
					"name": "",
					"type": "uint256"
				}
			],
			"stateMutability": "view",
			"type": "function"
		},
		{
			"inputs": [
				{
					"internalType": "address",
					"name": "ofAddress",
					"type": "address"
				}
			],
			"name": "calculateBNBReward",
			"outputs": [
				{
					"internalType": "uint256",
					"name": "",
					"type": "uint256"
				}
			],
			"stateMutability": "view",
			"type": "function"
		},
		{
			"inputs": [],
			"name": "calculateDistributionRate",
			"outputs": [
				{
					"internalType": "uint256",
					"name": "",
					"type": "uint256"
				}
			],
			"stateMutability": "view",
			"type": "function"
		},
		{
			"inputs": [
				{
					"internalType": "uint256",
					"name": "balance",
					"type": "uint256"
				},
				{
					"internalType": "uint256",
					"name": "amount",
					"type": "uint256"
				}
			],
			"name": "calculateRewardCycleExtension",
			"outputs": [
				{
					"internalType": "uint256",
					"name": "",
					"type": "uint256"
				}
			],
			"stateMutability": "view",
			"type": "function"
		},
		{
			"inputs": [],
			"name": "claimReward",
			"outputs": [],
			"stateMutability": "nonpayable",
			"type": "function"
		},
		{
			"inputs": [],
			"name": "claimRewardGasFeeEstimation",
			"outputs": [
				{
					"internalType": "uint256",
					"name": "",
					"type": "uint256"
				}
			],
			"stateMutability": "view",
			"type": "function"
		},
		{
			"inputs": [],
			"name": "claimRewardGasFeeRefundThreshold",
			"outputs": [
				{
					"internalType": "uint256",
					"name": "",
					"type": "uint256"
				}
			],
			"stateMutability": "view",
			"type": "function"
		},
		{
			"inputs": [],
			"name": "decimals",
			"outputs": [
				{
					"internalType": "uint8",
					"name": "",
					"type": "uint8"
				}
			],
			"stateMutability": "pure",
			"type": "function"
		},
		{
			"inputs": [
				{
					"internalType": "address",
					"name": "spender",
					"type": "address"
				},
				{
					"internalType": "uint256",
					"name": "subtractedValue",
					"type": "uint256"
				}
			],
			"name": "decreaseAllowance",
			"outputs": [
				{
					"internalType": "bool",
					"name": "",
					"type": "bool"
				}
			],
			"stateMutability": "nonpayable",
			"type": "function"
		},
		{
			"inputs": [
				{
					"internalType": "address",
					"name": "spender",
					"type": "address"
				},
				{
					"internalType": "uint256",
					"name": "addedValue",
					"type": "uint256"
				}
			],
			"name": "increaseAllowance",
			"outputs": [
				{
					"internalType": "bool",
					"name": "",
					"type": "bool"
				}
			],
			"stateMutability": "nonpayable",
			"type": "function"
		},
		{
			"inputs": [],
			"name": "isFeeEnabled",
			"outputs": [
				{
					"internalType": "bool",
					"name": "",
					"type": "bool"
				}
			],
			"stateMutability": "view",
			"type": "function"
		},
		{
			"inputs": [],
			"name": "isSwapEnabled",
			"outputs": [
				{
					"internalType": "bool",
					"name": "",
					"type": "bool"
				}
			],
			"stateMutability": "view",
			"type": "function"
		},
		{
			"inputs": [],
			"name": "maxTransactionAmount",
			"outputs": [
				{
					"internalType": "uint256",
					"name": "",
					"type": "uint256"
				}
			],
			"stateMutability": "view",
			"type": "function"
		},
		{
			"inputs": [],
			"name": "name",
			"outputs": [
				{
					"internalType": "string",
					"name": "",
					"type": "string"
				}
			],
			"stateMutability": "pure",
			"type": "function"
		},
		{
			"inputs": [
				{
					"internalType": "address",
					"name": "ofAddress",
					"type": "address"
				}
			],
			"name": "nextAvailableClaimDate",
			"outputs": [
				{
					"internalType": "uint256",
					"name": "",
					"type": "uint256"
				}
			],
			"stateMutability": "view",
			"type": "function"
		},
		{
			"inputs": [],
			"name": "owner",
			"outputs": [
				{
					"internalType": "address",
					"name": "",
					"type": "address"
				}
			],
			"stateMutability": "view",
			"type": "function"
		},
		{
			"inputs": [],
			"name": "pancakeSwapPairAddress",
			"outputs": [
				{
					"internalType": "address",
					"name": "",
					"type": "address"
				}
			],
			"stateMutability": "view",
			"type": "function"
		},
		{
			"inputs": [],
			"name": "pancakeSwapRouterAddress",
			"outputs": [
				{
					"internalType": "address",
					"name": "",
					"type": "address"
				}
			],
			"stateMutability": "view",
			"type": "function"
		},
		{
			"inputs": [],
			"name": "renounceOwnership",
			"outputs": [],
			"stateMutability": "nonpayable",
			"type": "function"
		},
		{
			"inputs": [],
			"name": "rewardCyclePeriod",
			"outputs": [
				{
					"internalType": "uint256",
					"name": "",
					"type": "uint256"
				}
			],
			"stateMutability": "pure",
			"type": "function"
		},
		{
			"inputs": [
				{
					"internalType": "address",
					"name": "byAddress",
					"type": "address"
				}
			],
			"name": "rewardsClaimed",
			"outputs": [
				{
					"internalType": "uint256",
					"name": "",
					"type": "uint256"
				}
			],
			"stateMutability": "view",
			"type": "function"
		},
		{
			"inputs": [
				{
					"internalType": "uint256",
					"name": "threshold",
					"type": "uint256"
				},
				{
					"internalType": "uint256",
					"name": "gasFee",
					"type": "uint256"
				}
			],
			"name": "setClaimRewardGasFeeOptions",
			"outputs": [],
			"stateMutability": "nonpayable",
			"type": "function"
		},
		{
			"inputs": [
				{
					"internalType": "uint8",
					"name": "liquidityFee",
					"type": "uint8"
				},
				{
					"internalType": "uint8",
					"name": "rewardFee",
					"type": "uint8"
				},
				{
					"internalType": "uint8",
					"name": "distributionFee",
					"type": "uint8"
				}
			],
			"name": "setFees",
			"outputs": [],
			"stateMutability": "nonpayable",
			"type": "function"
		},
		{
			"inputs": [
				{
					"internalType": "address",
					"name": "ofAddress",
					"type": "address"
				},
				{
					"internalType": "uint256",
					"name": "date",
					"type": "uint256"
				}
			],
			"name": "setNextAvailableClaimDate",
			"outputs": [],
			"stateMutability": "nonpayable",
			"type": "function"
		},
		{
			"inputs": [
				{
					"internalType": "address",
					"name": "routerAddress",
					"type": "address"
				}
			],
			"name": "setPancakeSwapRouter",
			"outputs": [],
			"stateMutability": "nonpayable",
			"type": "function"
		},
		{
			"inputs": [
				{
					"internalType": "uint256",
					"name": "threshold",
					"type": "uint256"
				}
			],
			"name": "setRewardCycleExtensionThreshold",
			"outputs": [],
			"stateMutability": "nonpayable",
			"type": "function"
		},
		{
			"inputs": [
				{
					"internalType": "uint256",
					"name": "limit",
					"type": "uint256"
				}
			],
			"name": "setTransactionLimit",
			"outputs": [],
			"stateMutability": "nonpayable",
			"type": "function"
		},
		{
			"inputs": [],
			"name": "symbol",
			"outputs": [
				{
					"internalType": "string",
					"name": "",
					"type": "string"
				}
			],
			"stateMutability": "pure",
			"type": "function"
		},
		{
			"inputs": [],
			"name": "totalAmountOfTokensHeld",
			"outputs": [
				{
					"internalType": "uint256",
					"name": "",
					"type": "uint256"
				}
			],
			"stateMutability": "view",
			"type": "function"
		},
		{
			"inputs": [],
			"name": "totalBNBClaimed",
			"outputs": [
				{
					"internalType": "uint256",
					"name": "",
					"type": "uint256"
				}
			],
			"stateMutability": "view",
			"type": "function"
		},
		{
			"inputs": [],
			"name": "totalBNBLiquidityAddedFromFees",
			"outputs": [
				{
					"internalType": "uint256",
					"name": "",
					"type": "uint256"
				}
			],
			"stateMutability": "view",
			"type": "function"
		},
		{
			"inputs": [],
			"name": "totalFeesDistributed",
			"outputs": [
				{
					"internalType": "uint256",
					"name": "",
					"type": "uint256"
				}
			],
			"stateMutability": "view",
			"type": "function"
		},
		{
			"inputs": [],
			"name": "totalFeesPooled",
			"outputs": [
				{
					"internalType": "uint256",
					"name": "",
					"type": "uint256"
				}
			],
			"stateMutability": "view",
			"type": "function"
		},
		{
			"inputs": [],
			"name": "totalSupply",
			"outputs": [
				{
					"internalType": "uint256",
					"name": "",
					"type": "uint256"
				}
			],
			"stateMutability": "pure",
			"type": "function"
		},
		{
			"inputs": [
				{
					"internalType": "address",
					"name": "recipient",
					"type": "address"
				},
				{
					"internalType": "uint256",
					"name": "amount",
					"type": "uint256"
				}
			],
			"name": "transfer",
			"outputs": [
				{
					"internalType": "bool",
					"name": "",
					"type": "bool"
				}
			],
			"stateMutability": "nonpayable",
			"type": "function"
		},
		{
			"inputs": [
				{
					"internalType": "address",
					"name": "sender",
					"type": "address"
				},
				{
					"internalType": "address",
					"name": "recipient",
					"type": "address"
				},
				{
					"internalType": "uint256",
					"name": "amount",
					"type": "uint256"
				}
			],
			"name": "transferFrom",
			"outputs": [
				{
					"internalType": "bool",
					"name": "",
					"type": "bool"
				}
			],
			"stateMutability": "nonpayable",
			"type": "function"
		},
		{
			"stateMutability": "payable",
			"type": "receive"
		}
	]
}